:020000040000FA
:060000000A128A11F82F1C
:100E7800831203138501860187018801890183167E
:100E8800031788018901831603138501073086003B
:100E980087018801890107309500573081000800D3
:100EA8008312031387018801861106120130890015
:100EB800F201F3018230F100DD30F000F00B622F17
:100EC800F10B622F672F831203130908F0007007D4
:100ED80089000130F2070318F30A0030F30773089A
:100EE800803AFF0080307F02031D7C2F033072029E
:100EF800031C7F2F802F5E2FF501F50A08000A12C8
:100F08008A113C270A128A118312031306188D2F9F
:100F18008E2F912FF801F80A9C2F7803031D952F27
:100F2800962F9C2FF8010A128A1154270A128A1147
:100F3800831203138618A12FA22FAA2F7503031D4E
:100F4800A62FA72FAA2FF701F70AC92F7703031D8A
:100F5800AE2FAF2FC92FF7010708031DB42FB52FE8
:100F6800B82F01308700C92F40300706031DBD2F59
:100F7800BE2FC52F0708F400740787008615F501F2
:100F8800C92F0708F400740787000619CC2FCD2F46
:100F9800D52F7503031DD12FD22FD52FF601F60AB1
:100FA800882F7603031DD92FDA2F882FF60108081A
:100FB800031DDF2FE02FE32F01308800882F4030FA
:100FC8000806031DE82FE92FF02F0808F40074071E
:100FD80088000616F501882F0808F40074078800B1
:100FE800882F0A128A110028F501F601F701F80185
:080FF80083010A128A11832F04
:04400E00D620FF3F7A
:00000001FF
