:020000040000FA
:060000000A128A110E280D
:10000800FE00030EF6000408F7000A08F8000A12BA
:100018008A11D92B0A128A111128F90183120313A4
:10002800B701B801B901BA01BB01BC01BD01BE01EC
:1000380083010A128A1120280A128A116F230A12D0
:100048008A110A128A11E9220A128A110A128A11DD
:1000580039240A128A11D0300A128A1116240A1277
:100068008A1100300A128A1116240A128A110A12F9
:100078008A1130240A128A110A128A1139240A12A2
:100088008A11D1300A128A1116240A128A110030F4
:100098000A128A11A8230A128A1183120313B600BE
:1000A8003608BD000A128A1130240A128A110A126F
:1000B8008A1139240A128A11D1300A128A11162497
:1000C8000A128A1100300A128A11A8230A128A1108
:1000D80083120313B6003608BC000A128A113024B2
:1000E8000A128A110A128A1139240A128A11D13085
:1000F8000A128A1116240A128A1100300A128A1169
:10010800A8230A128A1183120313B6003608BB000B
:100118000A128A1130240A128A110A128A11392401
:100128000A128A11D1300A128A1116240A128A1167
:1001380000300A128A11A8230A128A1183120313A3
:10014800B6003608BA000A128A1130240A128A1137
:100158000A128A1139240A128A11D1300A128A1114
:1001680016240A128A1100300A128A11A8230A12C8
:100178008A1183120313B6003608B9000A128A11CD
:1001880030240A128A110A128A1139240A128A1191
:10019800D1300A128A1116240A128A1100300A1262
:1001A8008A11A8230A128A1183120313B60036088B
:1001B800B8000A128A1130240A128A110A128A1106
:1001C80039240A128A11D1300A128A1116240A1205
:1001D8008A1100300A128A11A8230A128A1183127E
:1001E8000313B6003608B7000A128A1130240A121F
:1001F8008A110A128A1130240A128A110A128A11E3
:1002080039240A128A11D1300A128A1116240A12C4
:100218008A1100300A128A11A8230A128A110A12B6
:100228008A1130240A128A110B30831203133E02FA
:10023800031C1F2920292A28831603130C1683124E
:100248000313BE012A280A128A110E28A029013098
:10025800F3007308F907831203133B08F300043013
:100268000310F30CFF3E031D3429730801390A12E9
:100278008A118C220A128A11C5290130F3007308E9
:10028800F907831203133B080F390A128A118C22CB
:100298000A128A11C5290130F3007308F9073A30A8
:1002A800C5290130F3007308F907831203133C08CA
:1002B800F30004300310F30CFF3E031D5E2973089E
:1002C8000F390A128A118C220A128A11C5290130A3
:1002D800F3007308F907831203133C080F390A1255
:1002E8008A118C220A128A11C5290130F300730879
:1002F800F907831203133D08F30004300310F30CCD
:10030800FF3E031D822973080F390A128A118C22B5
:100318000A128A11C5290130F3007308F9078312FC
:1003280003133D080F390A128A118C220A128A1106
:10033800C529F9010A30C5297908F300F4017408C0
:10034800003A0319A829C5297308003A03192B296B
:10035800013A03194129033A03194F29013A0319AC
:100368005529073A03196B29013A03194F29033A0A
:1003780003197929013A03198F290F3A03199D297D
:10038800C5290800003083120313AC000030AB000D
:100398000030AA000030A900230822042104200408
:1003A8000319D729D829252AAD01AD0AE829013032
:1003B800A8000310A00DA10DA20DA30DA80BDD2907
:1003C8000130A8002808AD07A31FEB29EC29DB2979
:1003D8000130A8000310A90DAA0DAB0DAC0DA80B98
:1003E800EE2923082702031D032A22082602031DDB
:1003F800032A21082502031D032A20082402031CBE
:10040800062A072A162A2008A4022108031C210FFD
:10041800A5022208031C220FA6022308031C230F8F
:10042800A702291401300310A30CA20CA10CA00CE4
:10043800FF3E031D172A0130AD02031D242A252A79
:10044800EC292C08A3002B08A2002A08A1002908DF
:10045800A000080083120313A200682A831603135E
:100468000F138F120F128A2A831603130F138F127A
:100478000F168A2A831603130F138F160F128A2A50
:10048800831603130F138F160F168A2A8316031366
:100498000F178F120F128A2A831603130F178F1242
:1004A8000F168A2A831603130F178F160F128A2A1C
:1004B800831603130F178F160F168A2A8316031332
:1004C8000F178F160F128A2A2208A000A1012108EF
:1004D800003A0319702A622A2008003A0319322ABE
:1004E800013A0319382A033A03193E2A013A031933
:1004F800442A073A03194A2A013A0319502A033AA7
:100508000319562A013A03195C2A622A0F140800B3
:10051800F200AE2A3030E82A3130E82A3230E82AB0
:100528003330E82A3430E82A3530E82A3630E82AE9
:100538003730E82A3830E82A3930E82A4130E82AC2
:100548004230E82A4330E82A4430E82A4530E82A8D
:100558004630E82A7208F000F1017108003A0319E0
:10056800B62AE82A7008003A03198E2A013A0319B4
:10057800902A033A0319922A013A0319942A073A4E
:100588000319962A013A0319982A033A03199A2A51
:10059800013A03199C2A0F3A03199E2A013A0319B2
:1005A800A02A033A0319A22A013A0319A42A073AEE
:1005B8000319A62A013A0319A82A033A0319AA2AF1
:1005C800013A0319AC2AE82A08000A128A113924C8
:1005D8000A128A11D0300A128A1116240A128A11B4
:1005E80000300A128A1116240A128A1100300A12DF
:1005F8008A1116240A128A1142300A128A11162404
:100608000A128A1165300A128A1116240A128A11EE
:1006180005300A128A1116240A128A1125300A1284
:100628008A1116240A128A1102300A128A11162413
:100638000A128A1121300A128A1116240A128A1102
:100648000A128A1130240A128A111A3083120313EB
:10065800A200F730A100A10B2F2BA20B2F2B342BBC
:1006680008002830831203139400831603139101A2
:10067800831203132E08B2002F08B3003008B40009
:100688003108B50002300310B20DB30DB40DB50D2D
:10069800FF3E031D472B3508A3003408A20033088A
:1006A800A1003208A0000030A7003D30A6000930A4
:1006B800A5000030A4000A128A11C6210A128A1164
:1006C800831203132008FF3E83160313930094013B
:1006D8008715071608008312031385018601870111
:1006E800880189018316031788018901831603137A
:1006F800850186018701880189018B170B178B16E5
:100708000B110C1606300A128A112E220A128A11AF
:100718000A128A1102240A128A1183120317850108
:10072800D730831603138100003083120313B100FE
:100738000130B0008630AF00A030AE000A128A1136
:1007480035230A128A11080083120313A4000A121F
:100758008A1123240A128A118316031391150A1287
:100768008A1123240A128A11831203131308A00082
:10077800A1012008A2002108A3000A128A1123243B
:100788000A128A11831203132403031DCC2BCD2BC9
:10079800D12B831603139112D42B831603139116AE
:1007A800111683120313220808008B130B1DDD2B6F
:1007B800DE2BE72BEC308312031381000130F500A8
:1007C8007508BE070B11831203130C1EEC2BED2BBF
:1007D800F82B0A128A112A210A128A11831203138A
:1007E8009900831603130C128B1778088A00770870
:1007F8008400760E8300FE0E7E0E09008316031316
:100808001813181218158316031787111930831631
:10081800031399009A019816831203139817181353
:100828001816080083120313A0000A128A11232441
:100838000A128A11831203132008930008008316F2
:1008480003131419282C292C232C11081F39031DD4
:100858002E2C2F2C232C08000A128A1123240A126A
:100868008A1183160313111508000A128A1123240A
:0C0878000A128A118316031311140800E1
:04400E00D420FF3F7C
:00000001FF
