:020000040000FA
:060000000A128A110E280D
:10000800FE00030EF7000408F8000A08F9000A12B7
:100018008A115A2B0A128A111128FA01FB01FC01D4
:10002800FD0183120313B701B801B901BA01BB017D
:10003800BC01BD01BE01BF01C00183010A128A11C2
:10004800572916290130F3007308FD07831203139B
:100058003908F30004300310F30CFF3E031D2F286A
:1000680073080F390A128A11B1220A128A11562905
:100078000130F3007308FD078312031339080F39A1
:100088000A128A11B1220A128A1156290130F30084
:100098007308FD072F3056290130F3007308FD0758
:1000A800831203133A08F30004300310F30CFF3EE5
:1000B800031D5928730801390A128A11B1220A123C
:1000C8008A1156290130F3007308FD0783120313C0
:1000D8003A080F390A128A11B1220A128A115629CE
:1000E8000130F3007308FD07831203133B08F30084
:1000F80004300310F30CFF3E031D7D2873080339F9
:100108000A128A11B1220A128A1156290130F30003
:100118007308FD07831203133B080F390A128A116B
:10012800B1220A128A1156290130F3007308FD071B
:10013800093056290130F3007308FD0783120313B1
:100148003D08F30004300310F30CFF3E031DA728FD
:10015800730801390A128A11B1220A128A11562922
:100168000130F3007308FD07831203133D080F39AC
:100178000A128A11B1220A128A1156290130F30093
:100188007308FD073A3056290130F3007308FD075C
:10019800831203133E08F30004300310F30CFF3EF0
:1001A800031DD12873080F390A128A11B1220A12C5
:1001B8008A1156290130F3007308FD0783120313CF
:1001C8003E080F390A128A11B1220A128A115629D9
:1001D8000130F3007308FD07831203133F08F3008F
:1001E80004300310F30CFF3E031DF52873080F3984
:1001F8000A128A11B1220A128A1156290130F30013
:100208007308FD07831203133F080F390A128A1176
:10021800B1220A128A11562983120313B701FD016C
:100228000A3056297D08F300F4017408003A0319CE
:100238001E2956297308003A03192628013A03197A
:100248003C28033A03194A28013A03195028073A67
:1002580003196628013A03194A28033A031974282E
:10026800013A03198A280F3A03199828013A031901
:100278009E28033A0319B428013A0319C228073AF9
:100288000319C828013A0319DE28033A0319C228BA
:10029800013A0319EC281F3A03190229013A0319F4
:1002A8001029562908000A128A11A6230A128A114F
:1002B8000A128A110E230A128A110A128A11832439
:1002C8000A128A11D0300A128A1160240A128A117D
:1002D80000300A128A1160240A128A110A128A113D
:1002E8008C240A128A11D1300A128A1160240A1247
:1002F8008A1101300A128A111B240A128A118312E8
:100308000313B6003608BF0001300A128A111B24F5
:100318000A128A1183120313B6003608BE00013090
:100328000A128A111B240A128A1183120313B600B7
:100338003608BD0001300A128A111B240A128A11DC
:1003480083120313B6003608BC0001300A128A1162
:100358001B240A128A1183120313B6003608BB0045
:1003680001300A128A111B240A128A1183120313FC
:10037800B6003608BA0000300A128A111B240A1285
:100388008A1183120313B6003608B9000A128A11BB
:100398007A240A128A110A30831203133706031DBE
:1003A800D629D729E5298B160B304002031CDD29F5
:1003B800DE296129831603130C1683120313C00167
:1003C80061298B120B1161290A128A110E2800303B
:1003D80083120313AC000030AB000030AA000030D9
:1003E800A90023082204210420040319FC29FD295B
:1003F8004A2AAD01AD0A0D2A0130A8000310A00D4C
:10040800A10DA20DA30DA80B022A0130A8002808EF
:10041800AD07A31F102A112A002A0130A8000310D3
:10042800A90DAA0DAB0DAC0DA80B132A23082702A2
:10043800031D282A22082602031D282A210825022E
:10044800031D282A20082402031C2B2A2C2A3B2AB5
:100458002008A4022108031C210FA5022208031C5E
:10046800220FA6022308031C230FA7022914013018
:100478000310A30CA20CA10CA00CFF3E031D3C2AE8
:100488000130AD02031D492A4A2A112A2C08A3006B
:100498002B08A2002A08A1002908A000080083123E
:1004A8000313A2008D2A831603130F138F120F1242
:1004B800AF2A831603130F138F120F16AF2A831652
:1004C80003130F138F160F12AF2A831603130F137C
:1004D8008F160F16AF2A831603130F178F120F12DA
:1004E800AF2A831603130F178F120F16AF2A83161E
:1004F80003130F178F160F12AF2A831603130F1744
:100508008F160F16AF2A831603130F178F160F12A5
:10051800AF2A2208A000A1012108003A0319952A50
:10052800872A2008003A0319572A013A03195D2A35
:10053800033A0319632A013A0319692A073A031986
:100548006F2A013A0319752A033A03197B2A013ADB
:100558000319812A872A0F140800F200D32A3030A1
:100568000D2B31300D2B32300D2B33300D2B343019
:100578000D2B35300D2B36300D2B37300D2B3830F9
:100588000D2B39300D2B41300D2B42300D2B4330C4
:100598000D2B44300D2B45300D2B46300D2B72089A
:1005A800F000F1017108003A0319DB2A0D2B7008DD
:1005B800003A0319B32A013A0319B52A033A031971
:1005C800B72A013A0319B92A073A0319BB2A013A8B
:1005D8000319BD2A033A0319BF2A013A0319C12A8C
:1005E8000F3A0319C32A013A0319C52A033A031912
:1005F800C72A013A0319C92A073A0319CB2A013A2B
:100608000319CD2A033A0319CF2A013A0319D12A2B
:100618000D2B08000A128A1183240A128A11D0307D
:100628000A128A1160240A128A1100300A128A11E9
:1006380060240A128A1100300A128A1160240A12F0
:100648008A1122300A128A1160240A128A11413052
:100658000A128A1160240A128A1101300A128A11B8
:1006680060240A128A1101300A128A1160240A12BF
:100678008A1103300A128A1160240A128A11213061
:100688000A128A1160240A128A110A128A117A241B
:100698000A128A111A3083120313A200F730A1003C
:1006A800A10B542BA20B542B592B08008B130B1D99
:1006B8005E2B5F2B682BEC30831203138100013013
:1006C800F5007508C0070B11831203130C1E6D2B60
:1006D8006E2B792B0A128A1125200A128A1183128D
:1006E80003139900831603130C1283128C1E7D2B9F
:1006F8007E2B9C2B8C2B0130F5007508FC071A0803
:1007080085009C2BFC011A08F5007508B7009C2B86
:100718007C08F500F6017608003A0319942B9C2B07
:100728007508003A03197F2B013A0319862B9C2B75
:100738008B1779088A0078088400770E8300FE0EEC
:100748007E0E090083120313850186018701880143
:10075800890183160317880189018316031385010C
:10076800860198308700880189018B170B178B1633
:100778000B110C168C1606300A128A1153220A1213
:100788008A110A128A114C240A128A118312031739
:100798008501D730831603138100003083120313B9
:1007A800B1000130B0008630AF00A030AE000A12B0
:1007B8008A11E1230A128A110800283083120313D0
:1007C8009400831603139101831203132E08B200B9
:1007D8002F08B3003008B4003108B5000230031008
:1007E800B20DB30DB40DB50DFF3E031DF32B350847
:1007F800A3003408A2003308A1003208A00000308A
:10080800A7003D30A6000930A5000030A4000A1258
:100818008A11EB210A128A11831203132008FF3E62
:100828008316031393009401871507160800831293
:100838000313A4000A128A116D240A128A1183165E
:10084800031391150A128A116D240A128A11831250
:1008580003131308A000A1012008A2002108A30087
:100868000A128A116D240A128A11831203132403AF
:10087800031D3F2C402C442C831603139112472C44
:100888008316031391161116831203132208080006
:1008980083160313181318121815831603178711D4
:1008A80019308316031399009A01981683120313BB
:1008B800981718131816080083120313A0000A12B9
:1008C8008A116D240A128A118312031320089300D7
:1008D8000800831603131419722C732C6D2C11083D
:1008E8001F39031D782C792C6D2C08000A128A11E7
:1008F8006D240A128A1183160313111508000A12AF
:100908008A116D240A128A11831603131114080020
:100918000A128A116D240A128A118316031391147C
:020928000800C5
:04400E00D420FF3F7C
:00000001FF
