:020000040000FA
:060000000A128A110E280D
:10000800FE00030EF6000408F7000A08F8000A12BA
:100018008A11F02B0A128A111128F901FA01FB0141
:10002800FC01FD0183120313B701B801B901BA013C
:10003800BB01BC01BD01BE0183010A128A1153290B
:1000480012290130F3007308FD07831203133708E0
:10005800F30004300310F30CFF3E031D2E28730831
:100068000F390A128A11A3220A128A115229013061
:10007800F3007308FD078312031337080F390A12B8
:100088008A11A3220A128A1152290130F300730837
:10009800FD072F3052290130F3007308FD07831242
:1000A80003133808F30004300310F30CFF3E031D5C
:1000B8005828730801390A128A11A3220A128A11D0
:1000C80052290130F3007308FD078312031338081F
:1000D8000F390A128A11A3220A128A1152290130F1
:1000E800F3007308FD07831203133908F300043083
:1000F8000310F30CFF3E031D7C28730803390A1212
:100108008A11A3220A128A1152290130F3007308B6
:10011800FD078312031339080F390A128A11A32223
:100128000A128A1152290130F3007308FD070930B9
:1001380052290130F3007308FD07831203133B08AB
:10014800F30004300310F30CFF3E031DA6287308C8
:1001580001390A128A11A3220A128A11522901307E
:10016800F3007308FD07831203133B080F390A12C3
:100178008A11A3220A128A1152290130F300730846
:10018800FD073A3052290130F3007308FD07831246
:1001980003133C08F30004300310F30CFF3E031D67
:1001A800D02873080F390A128A11A3220A128A1159
:1001B80052290130F3007308FD07831203133C082A
:1001C8000F390A128A11A3220A128A115229013000
:1001D800F3007308FD07831203133D08F30004308E
:1001E8000310F30CFF3E031DF42873080F390A129D
:1001F8008A11A3220A128A1152290130F3007308C6
:10020800FD07831203133D080F390A128A11A3222E
:100218000A128A115229FD010A3052297D08F30079
:10022800F4017408003A03191A2952297308003A8C
:1002380003192528013A03193B28033A03194928C9
:10024800013A03194F28073A03196528013A031997
:100258004928033A03197328013A031989280F3AE0
:1002680003199728013A03199D28033A0319B3285B
:10027800013A0319C128073A0319C728013A031993
:10028800DD28033A0319C128013A0319EB281F3A5C
:1002980003190129013A03190F29522908000A12E2
:1002A8008A1186230A128A110A128A1100230A1255
:1002B8008A110A128A1150240A128A11D0300A129D
:1002C8008A112D240A128A1100300A128A112D244B
:1002D8000A128A110A128A1159240A128A11D13073
:1002E8000A128A112D240A128A1101300A128A115F
:1002F800BF230A128A1183120313B6003608BD0001
:1003080001300A128A11BF230A128A1183120313B9
:10031800B6003608BC0001300A128A11BF230A123F
:100328008A1183120313B6003608BB0001300A1283
:100338008A11BF230A128A1183120313B6003608E2
:10034800BA0001300A128A11BF230A128A118312D5
:100358000313B6003608B90001300A128A11BF2308
:100368000A128A1183120313B6003608B800003047
:100378000A128A11BF230A128A1183120313B600C4
:100388003608B7000A128A1147240A128A110B305C
:10039800831203133E02031CD229D3295D29831635
:1003A80003130C1683120313BE015D290A128A1166
:1003B8000E28003083120313AC000030AB0000306D
:1003C800AA000030A90023082204210420040319EC
:1003D800EE29EF293C2AAD01AD0AFF290130A8001A
:1003E8000310A00DA10DA20DA30DA80BF429013037
:1003F800A8002808AD07A31F022A032AF229013002
:10040800A8000310A90DAA0DAB0DAC0DA80B052A69
:1004180023082702031D1A2A22082602031D1A2A66
:1004280021082502031D1A2A20082402031C1D2A5C
:100438001E2A2D2A2008A4022108031C210FA50228
:100448002208031C220FA6022308031C230FA7025D
:10045800291401300310A30CA20CA10CA00CFF3E20
:10046800031D2E2A0130AD02031D3B2A3C2A032A14
:100478002C08A3002B08A2002A08A1002908A00024
:10048800080083120313A2007F2A831603130F1395
:100498008F120F12A12A831603130F138F120F1630
:1004A800A12A831603130F138F160F12A12A83167E
:1004B80003130F138F160F16A12A831603130F1792
:1004C8008F120F12A12A831603130F178F120F16FC
:1004D800A12A831603130F178F160F12A12A83164A
:1004E80003130F178F160F16A12A831603130F175E
:1004F8008F160F12A12A2208A000A1012108003A94
:100508000319872A792A2008003A0319492A013A47
:1005180003194F2A033A0319552A013A03195B2A8A
:10052800073A0319612A013A0319672A033A03199A
:100538006D2A013A0319732A792A0F140800F20068
:10054800C52A3030FF2A3130FF2A3230FF2A3330B3
:10055800FF2A3430FF2A3530FF2A3630FF2A373059
:10056800FF2A3830FF2A3930FF2A4130FF2A42302B
:10057800FF2A4330FF2A4430FF2A4530FF2A4630FD
:10058800FF2A7208F000F1017108003A0319CD2A18
:10059800FF2A7008003A0319A52A013A0319A72A65
:1005A800033A0319A92A013A0319AB2A073A03198E
:1005B800AD2A013A0319AF2A033A0319B12A013ABD
:1005C8000319B32A0F3A0319B52A013A0319B72AAE
:1005D800033A0319B92A013A0319BB2A073A03193E
:1005E800BD2A013A0319BF2A033A0319C12A013A5D
:1005F8000319C32AFF2A08000A128A1150240A1272
:100608008A11D0300A128A112D240A128A11003058
:100618000A128A112D240A128A1100300A128A112C
:100628002D240A128A1122300A128A112D240A1244
:100638008A1141300A128A112D240A128A110130B6
:100648000A128A112D240A128A1101300A128A11FB
:100658002D240A128A1103300A128A112D240A1233
:100668008A1121300A128A112D240A128A110A12BB
:100678008A1147240A128A111A3083120313A2001E
:10068800F730A100A10B462BA20B462B4B2B0800E1
:1006980028308312031394008316031391018312E5
:1006A80003132E08B2002F08B3003008B400310835
:1006B800B50002300310B20DB30DB40DB50DFF3EF9
:1006C800031D5E2B3508A3003408A2003308A100DF
:1006D8003208A0000030A7003D30A6000930A50070
:1006E8000030A4000A128A11DD210A128A1183122D
:1006F80003132008FF3E8316031393009401871504
:1007080007160800831203138501860187018801F3
:10071800890183160317880189018316031385014C
:1007280086018701880189018B170B178B160B111E
:100738000C1606300A128A1145220A128A110A1268
:100748008A1119240A128A11831203178501D730D6
:10075800831603138100003083120313B1000130A4
:10076800B0008630AF00A030AE000A128A114C23C8
:100778000A128A11080083120313A4000A128A11AC
:100788003A240A128A118316031391150A128A1140
:100798003A240A128A11831203131308A000A10134
:1007A8002008A2002108A3000A128A113A240A127A
:1007B8008A11831203132403031DE32BE42BE82B74
:1007C800831603139112EB2B83160313911611163C
:1007D80083120313220808008B130B1DF42BF52B2F
:1007E800FE2BEC308312031381000130F5007508ED
:1007F800BE070B11831203130C1E032C042C0F2CA1
:100808000A128A1124200A128A11831203139900EA
:10081800831603130C128B1778088A007708840054
:10082800760E8300FE0E7E0E09008316031318133E
:100838001812181583160317871119308316031316
:1008480099009A019816831203139817181318160B
:10085800080083120313A0000A128A113A240A120C
:100868008A118312031320089300080083160313C8
:1008780014193F2C402C3A2C11081F39031D452C04
:10088800462C3A2C08000A128A113A240A128A11B4
:1008980083160313111508000A128A113A240A1242
:1008A8008A1183160313111408000A128A113A24B4
:0C08B8000A128A11831603139114080021
:04400E00D420FF3F7C
:00000001FF
