:020000040000FA
:060000000A128A110E280D
:10000800FE00030EF6000408F7000A08F8000A12BA
:100018008A11BF2B0A128A111128F901FA018312D9
:100028000313B701B801B901BA01BB01BC01BD0195
:10003800BE0183010A128A1121280A128A11552346
:100048000A128A110A128A11CF220A128A110A1276
:100058008A111F240A128A11D0300A128A11FC232D
:100068000A128A1100300A128A11FC230A128A1114
:100078000A128A1116240A128A110A128A111F24D6
:100088000A128A11D1300A128A11FC230A128A1123
:1000980000300A128A118E230A128A11831203135E
:1000A800B6003608BD000A128A1116240A128A11EF
:1000B8000A128A111F240A128A11D1300A128A11CF
:1000C800FC230A128A1100300A128A118E230A129E
:1000D8008A1183120313B6003608BC000A128A116B
:1000E80016240A128A110A128A111F240A128A1166
:1000F800D1300A128A11FC230A128A1100300A121E
:100108008A118E230A128A1183120313B600360845
:10011800BB000A128A1116240A128A110A128A11BD
:100128001F240A128A11D1300A128A11FC230A12DA
:100138008A1100300A128A118E230A128A11831238
:100148000313B6003608BA000A128A1116240A12D6
:100158008A110A128A111F240A128A11D1300A122E
:100168008A11FC230A128A1100300A128A118E237E
:100178000A128A1183120313B6003608B9000A124C
:100188008A1116240A128A110A128A111F240A12C5
:100198008A11D1300A128A11FC230A128A110030FE
:1001A8000A128A118E230A128A1183120313B600C7
:1001B8003608B8000A128A1116240A128A110A127D
:1001C8008A111F240A128A11D1300A128A11FC23BB
:1001D8000A128A1100300A128A118E230A128A1111
:1001E80083120313B6003608B7000A128A111624C0
:1001F8000A128A110B30831203133E02031C0529CD
:1002080006292B28831603130C1683120313BE0129
:100218002B280A128A110E2886290130F300730848
:10022800FA07831203133B08F30004300310F30C9E
:10023800FF3E031D1A29730801390A128A11722216
:100248000A128A11AB290130F3007308FA078312E6
:1002580003133B080F390A128A1172220A128A11F3
:10026800AB290130F3007308FA073A30AB290130A3
:10027800F3007308FA07831203133C08F3000430F1
:100288000310F30CFF3E031D442973080F390A12AB
:100298008A1172220A128A11AB290130F3007308FD
:1002A800FA07831203133C080F390A128A117222C3
:1002B8000A128A11AB290130F3007308FA07831276
:1002C80003133D08F30004300310F30CFF3E031D35
:1002D800682973080F390A128A1172220A128A11C0
:1002E800AB290130F3007308FA07831203133D08A2
:1002F8000F390A128A1172220A128A11AB29FA01DD
:100308000A30AB297A08F300F4017408003A03199B
:100318008E29AB297308003A03191129013A0319E8
:100328002729033A03193529013A03193B29073AC2
:1003380003195129013A03193529033A03195F2989
:10034800013A031975290F3A03198329AB290800C3
:10035800003083120313AC000030AB000030AA0059
:100368000030A90023082204210420040319BD2910
:10037800BE290B2AAD01AD0ACE290130A800031011
:10038800A00DA10DA20DA30DA80BC3290130A80033
:100398002808AD07A31FD129D229C1290130A800F7
:1003A8000310A90DAA0DAB0DAC0DA80BD429230879
:1003B8002702031DE92922082602031DE92921082D
:1003C8002502031DE92920082402031CEC29ED2934
:1003D800FC292008A4022108031C210FA5022208D9
:1003E800031C220FA6022308031C230FA7022914AB
:1003F80001300310A30CA20CA10CA00CFF3E031D9E
:10040800FD290130AD02031D0A2A0B2AD2292C0826
:10041800A3002B08A2002A08A1002908A0000800B0
:1004280083120313A2004E2A831603130F138F128D
:100438000F12702A831603130F138F120F16702AC8
:10044800831603130F138F160F12702A83160313C4
:100458000F138F160F16702A831603130F178F1298
:100468000F12702A831603130F178F120F16702A94
:10047800831603130F178F160F12702A8316031390
:100488000F178F160F16702A831603130F178F1660
:100498000F12702A2208A000A1012108003A0319AE
:1004A800562A482A2008003A0319182A013A03193B
:1004B8001E2A033A0319242A013A03192A2A073A59
:1004C8000319302A013A0319362A033A03193C2A38
:1004D800013A0319422A482A0F140800F200942A04
:1004E8003030CE2A3130CE2A3230CE2A3330CE2A9E
:1004F8003430CE2A3530CE2A3630CE2A3730CE2A7E
:100508003830CE2A3930CE2A4130CE2A4230CE2A4F
:100518004330CE2A4430CE2A4530CE2A4630CE2A21
:100528007208F000F1017108003A03199C2ACE2ADA
:100538007008003A0319742A013A0319762A033A13
:100548000319782A013A03197A2A073A03197C2AE7
:10055800013A03197E2A033A0319802A013A03193A
:10056800822A0F3A0319842A013A0319862A033A80
:100578000319882A013A03198A2A073A03198C2A87
:10058800013A03198E2A033A0319902A013A0319EA
:10059800922ACE2A08000A128A111F240A128A11E6
:1005A800D0300A128A11FC230A128A1100300A126A
:1005B8008A11FC230A128A1100300A128A11FC23BC
:1005C8000A128A1121300A128A11FC230A128A118E
:1005D80071300A128A11FC230A128A1107300A1292
:1005E8008A11FC230A128A1128300A128A11FC2364
:1005F8000A128A1102300A128A11FC230A128A117D
:1006080021300A128A11FC230A128A110A128A114D
:1006180016240A128A111A3083120313A200F73023
:10062800A100A10B152BA20B152B1A2B08002830A3
:100638008312031394008316031391018312031387
:100648002E08B2002F08B3003008B4003108B500F6
:1006580002300310B20DB30DB40DB50DFF3E031DEE
:100668002D2B3508A3003408A2003308A100320856
:10067800A0000030A7003D30A6000930A5000030DA
:10068800A4000A128A11AC210A128A1183120313D8
:100698002008FF3E8316031393009401871507165D
:1006A80008008312031385018601870188018901E7
:1006B80083160317880189018316031385018601B0
:1006C8008701880189018B170B178B160B110C16E4
:1006D80006300A128A1114220A128A110A128A1181
:1006E800E8230A128A11831203178501D73083166B
:1006F80003138100003083120313B1000130B000EE
:100708008630AF00A030AE000A128A111B230A12ED
:100718008A11080083120313A4000A128A110924FB
:100728000A128A118316031391150A128A110924D1
:100738000A128A11831203131308A000A1012008CA
:10074800A2002108A3000A128A1109240A128A1198
:10075800831203132403031DB22BB32BB72B831669
:1007680003139112BA2B83160313911611168312D1
:100778000313220808008B130B1DC32BC42BCD2B8E
:10078800EC308312031381000130F5007508BE07B1
:100798000B11831203130C1ED22BD32BDE2B0A1240
:1007A8008A1110210A128A118312031399008316E1
:1007B80003130C128B1778088A0077088400760ECA
:1007C8008300FE0E7E0E09008316031318131812F9
:1007D8001815831603178711193083160313990008
:1007E8009A019816831203139817181318160800FD
:1007F80083120313A0000A128A1109240A128A110B
:100808008312031320089300080083160313141996
:100818000E2C0F2C092C11081F39031D142C152C14
:10082800092C08000A128A1109240A128A1183164F
:100838000313111508000A128A1109240A128A11D1
:080848008316031311140800CC
:04400E00D420FF3F7C
:00000001FF
