:020000040000FA
:100000000A128A11EC2F00308A000408840A820741
:10001000003430340034313400343234003433347A
:10002000003434340034353400343634003437345A
:0E003000003438340034393400343A340034AB
:10041200F000700883120313850008000A128A1183
:1004220037220A128A1183160313111408000A12C2
:100432008A1137220A128A11831603131115080032
:100442000A128A1137220A128A1183120313200810
:1004520093000800123400340534003406340034AA
:10046200013400340A340034373400348316031361
:1004720014193C2A3D2A372A11081F39031D422A22
:10048200432A372A08007E088A007F0882000A125F
:100492008A1144220A128A118000840A04087D0605
:1004A20003190034FF0A0319FE0A482A83160313AC
:1004B20085018701880189011130860083120313A7
:1004C2008501870188018901860183160317880146
:1004D20089010800F20083120313891472080A12B8
:1004E2008A1109220A128A118312031309140D3088
:1004F200F100F10B7A2A8312031309100800F300AA
:1005020083120313891073080A128A1109220A122C
:100512008A118312031309140D30F200FB30F1002B
:10052200F10B912AF20B912A962A831203130910D6
:100532000800F5007503031D9F2AA02AA82A740843
:100542007F3E0A128A1180220A128A11B52A0230CB
:100552007506031DAD2AAE2AB52A7408BF3E0A12DB
:100562008A1180220A128A110800F500F301F401AF
:10057200CD2A7308750784000A128A1103200A1211
:100582008A110A128A116B220A128A110130F307A8
:100592000318F40A0030F4077308750784000A127E
:1005A2008A1103200A128A11003A031DD92ADA2A73
:1005B200BA2A0800F401F501701CE02AE12AE72AB0
:1005C2007208F4070318F50A7308F50701300310DF
:1005D200F20DF30DFF3E031DE82A01300310F10C6A
:1005E200F00CFF3E031DEF2A70087104031DFA2A66
:1005F200FB2ADD2A7508F1007408F00008000F30AC
:100602007605F80000307705F900760E0F39F00014
:10061200770EF039F004770E0F39F100F030F11D4A
:100622000030F1040A30F2000030F3000A128A119D
:10063200DB220A128A1178087007F600790803187B
:10064200790A7107F70008000A128A1137220A1282
:100652008A118316031391150A128A1137220A127C
:100662008A11831203131308F200F3017208F400D3
:100672007308F5000A128A1137220A128A117003CE
:100682007104031D452B462B4A2B8316031391122B
:100692004D2B83160313911611167508F100740879
:1006A200F00008000A30F0000030F1007A08F30090
:1006B2007908F2000A128A112B250A128A1170088F
:1006C200FB007108FC00FB0EFC0EF030FC057B0801
:1006D2000F39FC04F030FB050A30F0000030F10065
:1006E2007A08F3007908F2000A128A1110240A1219
:1006F2008A1170087B07F90071080318710A7C07D8
:10070200FA0008002830831203139400831603139F
:100712009101831203132008A4002108A5002208D6
:10072200A6002308A70002300310A40DA50DA60DF4
:10073200A70DFF3E031D952B2708F3002608F200A4
:100742002508F1002408F0000030F7003D30F600E3
:100752000930F5000030F4000A128A11C5240A1289
:100762008A117008FF3E83160313930094018715C4
:10077200071608001430F5007930F400F40BBF2B93
:10078200F50BBF2BC42B00300A128A1109220A1260
:100792008A111A30F500F830F400F40BCE2BF50B69
:1007A200CE2B000030300A128A1180220A128A11DE
:1007B2000730F5007D30F400F40BDD2BF50BDD2B5B
:1007C20030300A128A1180220A128A113530F4005E
:1007D200F40BE92B30300A128A1180220A128A1194
:1007E20038300A128A1180220A128A1110300A1233
:1007F2008A1180220A128A1101300A128A11802279
:100802000A128A1106300A128A1180220A128A11E9
:100812000C300A128A1180220A128A110800F6018B
:10082200F31F142C152C1C2CF209F309F20A0319DC
:10083200F30AF601F60AF11F1F2C202C252CF009D1
:10084200F109F00A0319F10A7008710403192A2C3C
:100852002B2C5A2CF501F50A392C01300310F00D1E
:10086200F10DFF3E031D2F2C0130F4007408F50733
:10087200F11F3C2C3D2C2E2C71087302031D432CBE
:1008820070087202031C462C472C4D2C7008F20291
:100892007108031CF303F30201300310F10CF00C96
:1008A200FF3E031D4E2C0130F502031D592C5A2C1C
:1008B2003D2C760803195E2C5F2C642CF209F30997
:1008C200F20A0319F30A7308F1007208F000080033
:1008D200F200A12C831603130F138F120F12C32CD5
:1008E200831603130F138F120F16C32C83160313D1
:1008F2000F138F160F12C32C831603130F138F16A9
:100902000F16C32C831603130F178F120F12C32C4B
:10091200831603130F178F120F16C32C831603139C
:100922000F178F160F12C32C831603130F178F1670
:100932000F16C32C831603130F178F160F12C32C17
:100942007208F000F1017108003A0319A92C9B2CDE
:100952007008003A03196B2C013A0319712C033AFF
:100962000319772C013A03197D2C073A0319832CBA
:10097200013A0319892C033A03198F2C013A0319FE
:10098200952C9B2C0F1408000030FC000030FB005B
:100992000030FA000030F900730872047104700428
:1009A2000319D42CD52C222DFD01FD0AE52C013092
:1009B200F8000310F00DF10DF20DF30DF80BDA2C27
:1009C2000130F8007808FD07F31FE82CE92CD82C39
:1009D2000130F8000310F90DFA0DFB0DFC0DF80BB8
:1009E200EB2C73087702031D002D72087602031D9B
:1009F200002D71087502031D002D70087402031C7E
:100A0200032D042D132D7008F4027108031C710FBD
:100A1200F5027208031C720FF6027308031C730FAF
:100A2200F702791401300310F30CF20CF10CF00C04
:100A3200FF3E031D142D0130FD02031D212D222D29
:100A4200E92C7C08F3007B08F2007A08F1007908AF
:100A5200F0000800F601F11F2F2D302D372DF0097F
:100A6200F109F00A0319F10AF601F60AF31F3A2D09
:100A72003B2D442DF209F309F20A0319F30A01305E
:100A8200F4007408F606F701F801700871040319FE
:100A92004B2D4C2D832DF501F50A5A2D01300310F3
:100AA200F00DF10DFF3E031D502D0130F4007408CE
:100AB200F507F11F5D2D5E2D4F2D01300310F70D4F
:100AC200F80DFF3E031D5F2D71087302031D6B2D90
:100AD20070087202031C6E2D6F2D762D7008F202C3
:100AE2007108031CF303F302771401300310F10CB5
:100AF200F00CFF3E031D772D0130F502031D822D00
:100B0200832D5E2D76080319872D882D8D2DF709EB
:100B1200F809F70A0319F80A7808F1007708F000D3
:100B220008000A128A110F220A128A11D030831287
:100B32000313A0000030A1000A128A1121220A1216
:100B42008A11003083120313A000A1000A128A1135
:100B520021220A128A11831203133C08FA003B086D
:100B6200F9000A128A1153230A128A117A0883128F
:100B72000313A1007908A0000A128A1121220A1285
:100B82008A11831203133A08FA003908F9000A128B
:100B92008A1153230A128A117A0883120313A100BD
:100BA2007908A0000A128A1121220A128A118312DC
:100BB20003133808FA003708F9000A128A1153237E
:100BC2000A128A117A0883120313A1007908A0007D
:100BD2000A128A1121220A128A1101308312031386
:100BE200A0000030A1000A128A1121220A128A11E1
:100BF2000630F9000030FA000A128A1153230A1251
:100C02008A117A0883120313A1007908A0000A123C
:100C12008A1121220A128A110530F9000030FA00E5
:100C22000A128A1153230A128A117A0883120313B1
:100C3200A1007908A0000A128A1121220A128A113F
:100C42001230F9000030FA000A128A1153230A12F4
:100C52008A117A0883120313A1007908A0000A12EC
:100C62008A1121220A128A110A128A1118220A12E0
:100C72008A1108000A128A110F220A128A11D03030
:100C820083120313A0000030A1000A128A1121224C
:100C92000A128A11003083120313A000A1000A1263
:100CA2008A1121220A128A110A128A1118220A12A0
:100CB2008A110A128A110F220A128A11D130831262
:100CC2000313A0000030A1000A128A1121220A1285
:100CD2008A110030F000F1000A128A1125230A124B
:100CE2008A117108F7007008F6000A128A110023AF
:100CF2000A128A11770883120313BC007608BB001C
:100D02000A128A1118220A128A110A128A110F2251
:100D12000A128A11D13083120313A0000030A100FD
:100D22000A128A1121220A128A110030F000F100FF
:100D32000A128A1125230A128A117108F700700813
:100D4200F6000A128A1100230A128A117708831206
:100D52000313BA007608B9000A128A1118220A127D
:100D62008A110A128A110F220A128A11D1308312B1
:100D72000313A0000030A1000A128A1121220A12D4
:100D82008A110030F000F1000A128A1125230A129A
:100D92008A117108F7007008F6000A128A110023FE
:100DA2000A128A11770883120313B8007608B70073
:100DB2000A128A1118220A128A110A128A11182298
:100DC2000A128A110A128A110F220A128A11D130CA
:100DD20083120313A0000030A1000A128A112122FB
:100DE2000A128A110030F000F1000A128A1125233A
:100DF2000A128A110A128A1118220A128A1108008A
:100E020006300A128A1169240A128A110A128A11F8
:100E120057220A128A110A128A11BB230A128A1154
:100E2200003083120313A3000130A2008630A10018
:100E3200A030A0000A128A1183230A128A110A1210
:100E42008A1192250A128A110A128A113B260A1263
:100E52008A110A30F0000030F100831203133C08BB
:100E6200F3003B08F2000A128A1110240A128A11B6
:100E7200700883120313A8002808A9000A30F000A2
:100E82000030F1003C08F3003B08F2000A128A111C
:100E92002B250A128A11700883120313A80028084E
:100EA200AA000A30F0000030F1003A08F3003908D5
:100EB200F2000A128A1110240A128A11700883128F
:100EC2000313A8002808AB000A30F0000030F1003C
:100ED2003A08F3003908F2000A128A112B250A1285
:100EE2008A11700883120313A8002808AC000A3084
:100EF200F0000030F1003808F3003708F2000A125F
:100F02008A1110240A128A11700883120313A8008E
:100F12002808AD000A30F0000030F1003808F30074
:100F22003708F2000A128A112B250A128A11700858
:100F320083120313A8002808AE00F401F40A01305A
:100F42000A128A119A220A128A11831203132E0894
:100F5200303E0A128A116B220A128A11831203137B
:100F62002D08303E0A128A116B220A128A1115309C
:100F72000A128A11B6220A128A11831203132C084A
:100F8200303E0A128A116B220A128A11831203134B
:100F92002B08303E0A128A116B220A128A1115306E
:100FA2000A128A11B6220A128A11831203132A081C
:100FB200303E0A128A116B220A128A11831203131B
:100FC2002908303E0A128A116B220A128A11252F31
:100FD2000A128A11002883133B30FD000230FE0002
:100FE2002B30FF002F3084000A128A1148220A1285
:0E0FF2008A11BB01BC0183010A128A11012F72
:04400E00D420FF3F7C
:00000001FF
