:020000040000FA
:060000000A128A110C280F
:10000800FE00030EF7000A08F8000A128A11762883
:100018000A128A110F28F001F101F201F301F4012B
:1000280083010A128A111129F90050288316031333
:100038000F138F120F127428831603130F138F12C6
:100048000F167428831603130F138F160F127428B4
:10005800831603130F138F160F16742883160313B2
:100068000F178F120F127428831603130F178F128E
:100078000F167428831603130F178F160F12742880
:10008800831603130F178F160F167428831603137E
:100098000F178F160F127428790883120313A00004
:1000A800A1012108003A03195A284A282008003AD1
:1000B80003191A28013A03192028033A0319262894
:1000C800013A03192C28073A03193228013A03196F
:1000D8003828033A03193E28013A031944284A28C4
:1000E8000F1408008B130B1C7A287B289E28831278
:1000F80003130618802881288428F301F30A8E2820
:100108007303031D882889288E28F3010130F6001F
:10011800760888078618912892289528F401F40A09
:100128009D287403031D99289A289D28F4010130FD
:1001380088020B10831203138C1DA328A428B5284A
:1001480008080A128A112A210A128A110A128A1127
:100158001A210A128A11F6007608F0008312031396
:100168008C118B1778088A00770E8300FE0E7E0E9E
:10017800090083120313850186018701880189011B
:10018800831603178801890120308316031385001D
:1001980003308600183087008801890103309500F4
:1001A8005730810006300A128A1118200A128A1163
:1001B800033083160313960083120313A001A101D1
:1001C800A20124300A128A11F3200A128A118B170D
:1001D8000B178B150B10831603138C150800F900E9
:1001E800831603138712791DFA28FB280329831223
:1001F8000313220883160313940087150B2983120F
:100208000313200822048316031394008711790826
:10021800831203132104940008000A128A11BD20D6
:100228000A128A1116290A128A110C280A128A112E
:1002380023210A128A118312031313080800831654
:100248000313141C2829292923290800F5007508F7
:08025800831203139300080058
:04400E00D420FF3F7C
:00000001FF
