:020000040000FA
:060000000A128A110E280D
:10000800FE00030EF5000408F6000A08F7000A12BD
:100018008A112A2A0A128A111128F801F901FA010B
:10002800FB01FC0183120313A70183010A128A1141
:10003800392BF3009628831203139F121F129F1166
:100048001F11DF28831203139F121F129F111F1500
:10005800DF28831203139F121F129F151F11DF2819
:10006800831203139F121F129F151F15DF28831277
:1000780003139F121F169F111F11DF2883120313EA
:100088009F121F169F111F15DF28831203139F123B
:100098001F169F151F11DF28831203139F121F16A7
:1000A8009F151F15DF28831203139F161F129F1118
:1000B8001F11DF28831203139F161F129F111F158C
:1000C800DF28831203139F161F129F151F11DF28A5
:1000D800831203139F161F129F151F15DF28831203
:1000E80003139F161F169F111F11DF288312031376
:1000F8009F161F169F111F15DF28831203139F16C3
:100108001F169F151F11DF28831203139F161F1632
:100118009F151F15DF28831203139F121F129F11AB
:100128001F11DF287008F100F2017208003A031964
:100138009E288F287108003A03191F28013A0319CD
:100148002628033A03192D28013A03193428073AB7
:1001580003193B28013A03194228033A031949288D
:10016800013A031950280F3A03195728013A03197D
:100178005E28033A03196528013A03196C28073ADF
:1001880003197328013A03197A28033A03198128B5
:10019800013A031988288F281F131F13F5281F13E6
:1001A8001F17F5281F171F13F5281F171F17F528E6
:1001B8001F131F13F5287308F100F2017208003AA3
:1001C8000319E728DC287108003A0319D028013AF6
:1001D8000319D328033A0319D628013A0319D92851
:1001E800DC281F149F14831603139F010D30F2009F
:1001F800FB30F100F10BFE28F20BFE280329080062
:1002080083120313A3005D299F121F129F111F1150
:10021800A6299F121F129F111F15A6299F121F1290
:100228009F151F11A6299F121F129F151F15A6297A
:100238009F121F169F111F11A6299F121F169F118B
:100248001F15A6299F121F169F151F11A6299F1259
:100258001F169F151F15A6299F161F129F111F11E4
:10026800A6299F161F129F111F15A6299F161F1238
:100278009F151F11A6299F161F129F151F15A62926
:100288009F161F169F111F11A6299F161F169F1133
:100298001F15A6299F161F169F151F11A6299F1601
:1002A8001F169F151F15A6299F121F129F111F1198
:1002B800A6292008A100A2012208003A03196529ED
:1002C80058292108003A03190829013A03190D2968
:1002D800033A03191229013A03191729073A03198E
:1002E8001C29013A03192129033A03192629013A3D
:1002F80003192B290F3A03193029013A0319352913
:10030800033A03193A29013A03193F29073A03190D
:100318004429013A03194929033A03194E29013A94
:100328000319532958291F131F13BC291F131F17FB
:10033800BC291F171F13BC291F171F17BC291F1300
:100348001F13BC292308A100A2012208003A03199F
:10035800AE29A3292108003A03199729013A03195C
:100368009A29033A03199D29013A0319A029A329B7
:100378001F149F14831603139F010D308312031358
:10038800A200FB30A100A10BC729A20BC7290800B6
:1003980083120313A200062A831603130F138F1266
:1003A8000F12282A831603130F138F120F16282AE9
:1003B800831603130F138F160F12282A831603139D
:1003C8000F138F160F16282A831603130F178F1271
:1003D8000F12282A831603130F178F120F16282AB5
:1003E800831603130F178F160F12282A8316031369
:1003F8000F178F160F16282A831603130F178F1639
:100408000F12282A2208A000A1012108003A031986
:100418000E2A002A2008003A0319D029013A0319A4
:10042800D629033A0319DC29013A0319E229073AC4
:100438000319E829013A0319EE29033A0319F429A3
:10044800013A0319FA29002A0F1408008B130B1D0F
:100458002E2A2F2A382AEC30831203138100013008
:10046800F4007408A7070B11831203130C1F3D2A0D
:100478003E2A6C2A7808031D422A432A562A1E0857
:10048800F4007408FC001E0886000530F4007408A7
:10049800F00002300A128A111D200A128A11F8018E
:1004A800F80A672A1E08F4007408FB001E08860074
:1004B8000630F4007408F00002300A128A111D2078
:1004C8000A128A11F801FA01FA0A831203130C13AB
:1004D8008C1E6F2A702A742A1A08F4007408F9000E
:1004E8008B1777088A0076088400750E8300FE0E45
:1004F8007E0E090000300A128A114C230A128A1152
:100508000D3083120313A500FB30A400A40B8A2A24
:10051800A50B8A2A30300A128A1109230A128A1175
:10052800063083120313A5002F30A400A40B9A2AC7
:10053800A50B9A2A9F2A30300A128A1109230A1217
:100548008A111D3083120313A400A40BA92A30308A
:100558000A128A1109230A128A1138300A128A11DA
:1005680009230A128A1108300A128A1109230A1269
:100578008A1101300A128A1109230A128A110630D7
:100588000A128A1109230A128A1108008312031316
:10059800850186018701880189018316031788016F
:1005A80088160817890183160313850186018701B8
:1005B8008801033089008B170B178B160B110C174A
:1005C8008C1606300A128A11CC210A128A110530BB
:1005D80083120313A6002608A00002300A128A110B
:1005E80004210A128A110A128A1125230A128A1171
:1005F8000A128A117E220A128A11831203178501B0
:10060800D730831603138100080083120313A30055
:10061800081123080A128A114C230A128A1183121C
:1006280003130814063083120313A2002F30A1000D
:10063800A10B1C2BA20B1C2B212B831203130810BC
:1006480008008316031318131812181583160317B6
:10065800871119308316031399009A01981683128B
:10066800031398171813181608000A128A11CA22B9
:100678000A128A110B30831203132702031C452B1D
:10068800462B3E2B9F14A7013E2B0A128A110E28D7
:0C06980083120313A00020088500080056
:04400E00D420FF3F7C
:00000001FF
