:020000040000FA
:060000000A128A110E280D
:10000800FE00030EF7000408F8000A08F9000A12B7
:100018008A11582C0A128A111128FA01FB01FC01D5
:10002800FD0183120313B701B801B901BA01BB017D
:1000380083010A128A110B2F7A08031D2428252808
:100048001029333083120313A6000030A7007D085F
:10005800AF00B0012F08A0003008A1006430A20052
:100068000030A3000A128A156F270A128A11831218
:1000780003132108A9002008A8000A128A1189255B
:100088000A128A11831203132708B5002608B40040
:100098006430A0000030A1003508A3003408A20095
:1000A8000A128A1157270A128A1183120313200889
:1000B800AF002F08B2003208AF00B0012F08A0002F
:1000C8003008A1009C30A200FF30A3000A128A1554
:1000D8006F270A128A118312031334082007B40009
:1000E80035080318350A2107B5000A30A00000308A
:1000F800A1003508A3003408A2000A128A11572764
:100108000A128A11831203132008AF002F08B300C4
:100118003308AF00B0012F08A0003008A100F63066
:10012800A200FF30A3000A128A156F270A128A114B
:100138008312031334082007B40035080318350A5E
:100148002107B5003408AF002F08B100A401A40AA4
:1001580002300A128A11DE270A128A118312031347
:1001680032080A128A15BF270A128A110A128A153A
:1001780096270A128A11023083120313AF002F0840
:10018800A40002300A128A11DE270A128A112230CC
:100198000A128A1596270A128A110330831203134A
:1001A800AF002F08A40002300A128A11DE270A12B3
:1001B8008A118312031333080A128A15BF270A12F9
:1001C8008A110A128A1596270A128A110430831294
:1001D8000313AF002F08A40002300A128A11DE2789
:1001E8000A128A118312031331080A128A15BF27CB
:1001F8000A128A110A128A1596270A128A110530DC
:1002080083120313AF002F08A40002300A128A11C8
:10021800DE270A128A11FC29333083120313A60041
:100228000030A7007C08AF00B0012F08A0003008FC
:10023800A1006430A2000030A3000A128A156F27BB
:100248000A128A11831203132108A9002008A800A2
:100258000A128A1189250A128A11831203132708A0
:10026800B5002608B4006430A0000030A1003508AD
:10027800A3003408A2000A128A1157270A128A1109
:10028800831203132008AF002F08B2003208AF0012
:10029800B0012F08A0003008A1009C30A200FF3058
:1002A800A3000A128A156F270A128A1183120313F0
:1002B80034082007B40035080318350A2107B500AB
:1002C8000A30A0000030A1003508A3003408A200BD
:1002D8000A128A1157270A128A1183120313200857
:1002E800AF002F08B3003308AF00B0012F08A000FB
:1002F8003008A100F630A200FF30A3000A128A15C8
:100308006F270A128A118312031334082007B400D6
:1003180035080318350A2107B5003408AF002F083F
:10032800B1000730AF002F08A40002300A128A116A
:10033800DE270A128A118312031332080A128A1559
:10034800BF270A128A110A128A1596270A128A11D9
:10035800083083120313AF002F08A40002300A12DA
:100368008A11DE270A128A1122300A128A15962764
:100378000A128A11093083120313AF002F08A40050
:1003880002300A128A11DE270A128A118312031315
:1003980033080A128A15BF270A128A110A128A1507
:1003A80096270A128A110A3083120313AF002F0806
:1003B800A40002300A128A11DE270A128A11831257
:1003C800031331080A128A15BF270A128A110A1262
:1003D8008A1596270A128A110B3083120313AF006D
:1003E8002F08A40002300A128A11DE270A128A1185
:1003F8000800F300762A831203139F121F129F111D
:100408001F11BF2A831203139F121F129F111F155A
:10041800BF2A831203139F121F129F151F11BF2A91
:10042800831203139F121F129F151F15BF2A8312D1
:1004380003139F121F169F111F11BF2A8312031344
:100448009F121F169F111F15BF2A831203139F1295
:100458001F169F151F11BF2A831203139F121F1601
:100468009F151F15BF2A831203139F161F129F1172
:100478001F11BF2A831203139F161F129F111F15E6
:10048800BF2A831203139F161F129F151F11BF2A1D
:10049800831203139F161F129F151F15BF2A83125D
:1004A80003139F161F169F111F11BF2A83120313D0
:1004B8009F161F169F111F15BF2A831203139F161D
:1004C8001F169F151F11BF2A831203139F161F168D
:1004D8009F151F15BF2A831203139F121F129F1106
:1004E8001F11BF2A7008F100F2017208003A0319BF
:1004F8007E2A6F2A7108003A0319FF29013A031965
:10050800062A033A03190D2A013A0319142A073A4D
:1005180003191B2A013A0319222A033A0319292A23
:10052800013A0319302A0F3A0319372A013A0319F5
:100538003E2A033A0319452A013A03194C2A073A75
:100548000319532A013A03195A2A033A0319612A4B
:10055800013A0319682A6F2A1F131F13D52A1F137C
:100568001F17D52A1F171F13D52A1F171F17D52A7C
:100578001F131F13D52A7308F100F2017208003AFD
:100588000319C72ABC2A7108003A0319B02A013A8C
:100598000319B32A033A0319B62A013A0319B92AE7
:1005A800BC2A1F149F14831603139F010D30F200F9
:1005B800FB30F100F10BDE2AF20BDE2AE32A0800F9
:1005C80083120313A3003D2B9F121F129F111F11AB
:1005D800862B9F121F129F111F15862B9F121F1209
:1005E8009F151F11862B9F121F129F151F15862BF3
:1005F8009F121F169F111F11862B9F121F169F11E6
:100608001F15862B9F121F169F151F11862B9F12D1
:100618001F169F151F15862B9F161F129F111F113E
:10062800862B9F161F129F111F15862B9F161F12B0
:100638009F151F11862B9F161F129F151F15862B9E
:100648009F161F169F111F11862B9F161F169F118D
:100658001F15862B9F161F169F151F11862B9F1679
:100668001F169F151F15862B9F121F129F111F11F2
:10067800862B2008A100A2012208003A0319452B65
:10068800382B2108003A0319E82A013A0319ED2A00
:10069800033A0319F22A013A0319F72A073A031908
:1006A800FC2A013A0319012B033A0319062B013AD4
:1006B80003190B2B0F3A0319102B013A0319152BA9
:1006C800033A03191A2B013A03191F2B073A031986
:1006D800242B013A0319292B033A03192E2B013A2B
:1006E8000319332B382B1F131F139C2B1F131F1792
:1006F8009C2B1F171F139C2B1F171F179C2B1F1397
:100708001F139C2B2308A100A2012208003A0319F9
:100718008E2B832B2108003A0319772B013A0319F2
:100728007A2B033A03197D2B013A0319802B832B6B
:100738001F149F14831603139F010D308312031394
:10074800A200FB30A100A10BA72BA20BA72B08002E
:10075800831203130608AF002F08B5006430A60003
:100768000030A7003508AF00B0012F08A8003008F6
:10077800A9000A128A1189250A128A118312031301
:100788002608B1003108B3009C30AF002F08A00044
:1007980033080A128A1525270A128A1183120313AD
:1007A8003507B0003008B5000A30A6000030A700B1
:1007B8003508AF00B0012F08A8003008A9000A12B8
:1007C8008A1189250A128A11831203132608B10097
:1007D8003108B400F630AF002F08A00034080A1220
:1007E8008A1525270A128A11831203133507B000C8
:1007F8003008B5003508AF002F08B2000D30AF0043
:100808002F08A40002300A128A11DE270A128A1160
:100818008312031333080A128A15BF270A128A1192
:100828000A128A1596270A128A110E3083120313A8
:10083800AF002F08A40002300A128A11DE270A121C
:100848008A118312031334080A128A15BF270A1261
:100858008A110A128A1596270A128A110F308312F2
:100868000313AF002F08A40002300A128A11DE27F2
:100878000A128A118312031332080A128A15BF2733
:100888000A128A110A128A1596270A128A1110303A
:1008980083120313AF002F08A40002300A128A1132
:1008A800DE270A128A1108008B130B1D5C2C5D2CA5
:1008B800662CEC308312031381000130F6007608B1
:1008C800BB070B11831203130C1F6B2C6C2C962C7B
:1008D8007A08031D702C712C822C1E08F6007608ED
:1008E800FD000530F6007608F00002300A128A1181
:1008F800FD210A128A11FA01FA0A912C1E08F60043
:100908007608FC000630F6007608F00002300A127D
:100918008A11FD210A128A11FA0183120313BA01FE
:10092800BA0A0C138C1E992C9A2CE52C1A08F6007E
:100938007608FB002B307B06031DA32CA42CA72CC8
:10094800B701B70AE52C3703031DAB2CAC2CB82C28
:100958000D307B06031DB12CB22CB82CB701013029
:10096800F60076088607E52C2D307B06031DBD2C86
:10097800BE2CC12CB801B80AE52C3803031DC52CC0
:10098800C62CD02C0D307B06031DCB2CCC2CD02CA8
:10099800B80101308602E52C0D307B060319D52CF1
:1009A800D62CE52C2B307B060319DB2CDC2CE52C14
:1009B8002D307B060319E12CE22CE52CB801B70198
:1009C800E52C0C1EE82CE92CF42C0A128A11FE24C2
:1009D8000A128A11831203139900831603130C1247
:1009E8008B1779088A0078088400770E8300FE0E3A
:1009F8007E0E0900642D0130F3007308B907283012
:100A0800882D7D08F30004300310F30CFF3E031D0E
:100A1800082D73080F39F4007408F5000130F3004D
:100A28007308B90775080A128A11AE260A128A11C4
:100A3800882D7D080F39F3007308F5000130F300A5
:100A48007308B90775080A128A11AE260A128A11A4
:100A5800882D0130F3007308B9072C30882D7C08E5
:100A6800F30004300310F30CFF3E031D362D73080A
:100A78000F39F4007408F5000130F3007308B90762
:100A880075080A128A11AE260A128A11882D0130B9
:100A9800F3007308B9077C080F39F3007308F500F1
:100AA80075080A128A11AE260A128A11882D013099
:100AB800F3007308B9072930882DB9010D30882D46
:100AC800831203133908F300F4017408003A031978
:100AD8006E2D882D7308003A0319FF2C013A03196B
:100AE800052D033A03191D2D013A03192D2D073A37
:100AF8000319332D013A03194B2D033A03195B2DC2
:100B0800013A0319612D882D080083120313AC01E3
:100B1800A71F8F2D902D972DA609A709A60A03199F
:100B2800A70AAC01AC0AA91F9A2D9B2DA42DA809D0
:100B3800A909A80A0319A90A0130AA002A08AC06BB
:100B4800AD01AE01260827040319AB2DAC2DE32D0A
:100B5800AB01AB0ABA2D01300310A60DA70DFF3E5D
:100B6800031DB02D0130AA002A08AB07A71FBD2D11
:100B7800BE2DAF2D01300310AD0DAE0DFF3E031D90
:100B8800BF2D27082902031DCB2D26082802031C88
:100B9800CE2DCF2DD62D2608A8022708031CA90381
:100BA800A9022D1401300310A70CA60CFF3E031D4B
:100BB800D72D0130AB02031DE22DE32DBE2D2C08ED
:100BC8000319E72DE82DED2DAD09AE09AD0A03197E
:100BD800AE0A2E08A7002D08A600080083120313EA
:100BE800A2002C2E831603130F138F120F124E2EF2
:100BF800831603130F138F120F164E2E831603132B
:100C08000F138F160F124E2E831603130F138F1602
:100C18000F164E2E831603130F178F120F124E2E18
:100C2800831603130F178F120F164E2E83160313F6
:100C38000F178F160F124E2E831603130F178F16CA
:100C48000F164E2E831603130F178F160F124E2EE4
:100C58002208A000A1012108003A0319342E262EEB
:100C68002008003A0319F62D013A0319FC2D033A1E
:100C78000319022E013A0319082E073A03190E2EFA
:100C8800013A0319142E033A03191A2E013A0319CB
:100C9800202E262E0F140800143083120313A500EB
:100CA8007930A400A40B562EA50B562E00300A123C
:100CB8008A150B270A128A111A3083120313A5000A
:100CC800F730A400A40B662EA50B662E6B2E3030D1
:100CD8000A128A1554270A128A110730831203133D
:100CE800A5007C30A400A40B772EA50B772E00005E
:100CF80030300A128A1554270A128A1134308312A6
:100D08000313A400A40B862E000030300A128A15A3
:100D180054270A128A1138300A128A1554270A12DF
:100D28008A1110300A128A1554270A128A110130C2
:100D38000A128A1554270A128A1106300A128A15CD
:100D480054270A128A110C300A128A1554270A12DB
:100D58008A110800F200D02E30300A2F31300A2FC5
:100D680032300A2F33300A2F34300A2F35300A2F09
:100D780036300A2F37300A2F38300A2F39300A2FE9
:100D880041300A2F42300A2F43300A2F44300A2FAD
:100D980045300A2F46300A2F7208F000F101710819
:100DA800003A0319D82E0A2F7008003A0319B02EFA
:100DB800013A0319B22E033A0319B42E013A031962
:100DC800B62E073A0319B82E013A0319BA2E033A78
:100DD8000319BC2E013A0319BE2E0F3A0319C02E6F
:100DE800013A0319C22E033A0319C42E013A031912
:100DF800C62E073A0319C82E013A0319CA2E033A18
:100E08000319CC2E013A0319CE2E0A2F08000A1214
:100E18008A119D270A128A1101300A128A1596270B
:100E28000A128A11073083120313B6003608A40089
:100E380001300A128A11DE270A128A1107300A12B3
:100E48008A1596270A128A110D3083120313B600E9
:100E58003608A40001300A128A11DE270A128A1104
:100E68000D300A128A1596270A128A110B3083123E
:100E780003133B02031C412F422F492F9F14831653
:100E880003130C1683120313BB010A128A112020C4
:100E98000A128A110A128A11AC230A128A113A2FED
:100EA8000A128A110E2883120313A501A60120082D
:100EB80021040319602F612F982FA701A70A6F2F0C
:100EC80001300310A00DA10DFF3E031D652F013059
:100ED800A4002408A707A11F722F732F642F0130C5
:100EE8000310A50DA60DFF3E031D742F2108230234
:100EF800031D802F20082202031C832F842F8B2F91
:100F08002008A2022108031CA303A3022514013010
:100F18000310A10CA00CFF3E031D8C2F0130A7026B
:100F2800031D972F982F732F2608A1002508A000CE
:100F3800080083120313850186018701880189014E
:100F48008316031788018816081789018316031367
:100F580085018601803087008801033089008B175E
:100F68000B178B160B110C178C160C1606300A1261
:100F78008A11F2250A128A11053083120313A6007A
:100F88002608A00002300A128A11E4220A128A11E5
:100F98000A128A1511270A128A110A128A11502672
:100FA8000A128A11831203178501D7308316031397
:100FB8008100080083120313A5002503031DE52FF4
:100FC800E62FEE2F24087F3E0A128A1554270A12AC
:100FD8008A11FB2F02302506031DF32FF42FFB2F58
:100FE8002408BF3E0A128A1554270A128A110800DB
:1010000008308A000408840A8207003453346534A7
:101010006E34203431340034533465346E3420342B
:101020003234003443346F346E347434003430342A
:10103000003433340034343400343534003436343E
:1010400000343734003438340034393400342E342A
:0210500000346A
:101E160083120313A000200885000800831603130D
:101E260018131812181583160317871119308316FD
:101E3600031399009A01981683120313981718131F
:101E46001816080083120313A300A201231C2C2FCB
:101E56002D2F312F2008A1002108A2070310A00D65
:101E66000310A30C2308031D392F3A2F292F22080C
:101E7600080083120313A200081522080A128A1505
:101E86000B270A128A158312031308140C308312C7
:101E96000313A100A10B4D2F00008312031308109A
:101EA600080083120313A300081123080A128A15D7
:101EB6000B270A128A158312031308140D30831296
:101EC6000313A200FB30A100A10B672FA20B672F03
:101ED600831203130810080083120313A401A5013B
:101EE600201C762F772F7D2F2208A4070318A50A1A
:101EF6002308A50701300310A20DA30DFF3E031D05
:101F06007E2F01300310A10CA00CFF3E031D852F70
:101F160020082104031D902F912F732F2508A1005F
:101F26002408A000080083120313A500A301A4013E
:101F3600B12F2308250784000A128A1500200A12E9
:101F46008A150A128A153C270A128A15013083124D
:101F56000313A3070318A40A0030A40723082507C0
:101F660084000A128A1500200A128A15003A031DF7
:101F7600BD2FBE2F9C2F080083120313A200D72F5C
:101F86001230FF2F0530FF2F0B30FF2F1430FF2F9D
:101F96001630FF2F1830FF2F1A30FF2F1C30FF2F5F
:101FA6001E30FF2F2030FF2F2208A000A10121089C
:101FB600003A0319DF2FFF2F2008003A0319C32F19
:101FC600013A0319C52F033A0319C72F013A03191A
:101FD600C92F073A0319CB2F013A0319CD2F033A1C
:101FE6000319CF2F013A0319D12F0F3A0319D32F13
:0A1FF600013A0319D52FFF2F080050
:04400E00D420FF3F7C
:00000001FF
