:020000040000FA
:060000000A128A110C280F
:10000800FE00030EF1000A08F2000A128A11322AD1
:100018000A128A110F28F801F901FA0183010A125C
:100028008A11552AF6008F28831203139F121F1274
:100038009F111F11D828831203139F121F129F119B
:100048001F15D828831203139F121F129F151F1103
:10005800D828831203139F121F129F151F15D82823
:10006800831203139F121F169F111F11D828831282
:1000780003139F121F169F111F15D82883120313ED
:100088009F121F169F151F11D828831203139F1242
:100098001F169F151F15D828831203139F161F12AA
:1000A8009F111F11D828831203139F161F129F1127
:1000B8001F15D828831203139F161F129F151F118F
:1000C800D828831203139F161F129F151F15D828AF
:1000D800831203139F161F169F111F11D82883120E
:1000E80003139F161F169F111F15D8288312031379
:1000F8009F161F169F151F11D828831203139F16CA
:100108001F169F151F15D828831203139F121F123D
:100118009F111F11D8287308F400F5017508003ADB
:100128000319972888287408003A03191828013AEF
:1001380003191F28033A03192628013A03192D2801
:10014800073A03193428013A03193B28033A0319DB
:100158004228013A031949280F3A03195028013A4D
:1001680003195728033A03195E28013A0319652829
:10017800073A03196C28013A03197328033A03193B
:100188007A28013A0319812888281F131F13EE289B
:100198001F131F17EE281F171F13EE281F171F17EF
:1001A800EE281F131F13EE287608F400F5017508D2
:1001B800003A0319E028D5287408003A0319C92819
:1001C800013A0319CC28033A0319CF28013A031935
:1001D800D228D5281F149F14831603139F01823039
:1001E800F500DD30F400F40BF728F50BF728FC28B0
:1001F8000800F5003529831603130F138F120F1209
:100208005729831603130F138F120F1657298316B6
:1002180003130F138F160F125729831603130F1387
:100228008F160F165729831603130F178F120F12E5
:100238005729831603130F178F120F165729831682
:1002480003130F178F160F125729831603130F174F
:100258008F160F165729831603130F178F160F12B1
:1002680057297508F300F4017408003A03193D2969
:100278002F297308003A0319FF28013A03190529A1
:10028800033A03190B29013A03191129073A0319EB
:100298001729013A03191D29033A03192329013A99
:1002A800031929292F290F14080000300A128A116E
:1002B800C4220A128A110D3083120313A100FB30E5
:1002C800A000A00B6529A10B652930300A128A11FC
:1002D80073220A128A11063083120313A1002F30E9
:1002E800A000A00B7529A10B75297A2930300A12B4
:1002F8008A1173220A128A111D3083120313A00077
:10030800A00B842930300A128A1173220A128A112A
:1003180038300A128A1173220A128A1108300A1216
:100328008A1173220A128A1101300A128A11732261
:100338000A128A1106300A128A1173220A128A11C5
:10034800080083120313850186018701880189014A
:100358008316031788018816081789018316031363
:1003680085018601870188010330890057308100A3
:1003780006300A128A11FD200A128A110530F70088
:100388007708F30002300A128A1116200A128A111D
:100398000A128A11A3220A128A110A128A115921F1
:1003A8000A128A1183120317850157308316031323
:1003B80081008B170B178B160B110C178C16080066
:1003C8000A128A11B7220A128A11F701F70A0130B4
:1003D8000A128A110C220A128A1165300A128A112D
:1003E8008D220A128A1153300A128A118D220A129A
:1003F8008A110B3083120313A5002630A4005D3048
:10040800A300A30B052AA40B052AA50B052A08009F
:1004180083120313A1002103031D132A142A202A7F
:1004280077087F3EA0002008A20022080A128A113D
:1004380073220A128A11312A02302106031D252A45
:10044800262A312A7708BF3EA0002008A2002208E9
:100458000A128A1173220A128A1108008B130B1DC3
:10046800362A372A402AEC308312031381000130E0
:10047800F0007008F9070B11831203130C1F452AAB
:10048800462A4D2A1E08F0007008FA00F801F80AFA
:100498000C138B1772088A00710E8300FE0E7E0EF5
:1004A80009000A128A11A5210A128A110B30790251
:1004B800031C5F2A602A642A831203139F14F9011C
:1004C8007803031D682A692A6A2AF8010A128A1120
:1004D800E4210A128A115A2A0A128A110C28F600F3
:1004E80083120313081176080A128A11C4220A1209
:1004F8008A118312031308140630F5003030F40013
:10050800F40B842AF50B842A0000831203130810C5
:100518000800F50083120313081575080A128A11DA
:10052800C4220A128A118312031308140D30F4002E
:10053800F40B9C2A83120313081008110800831671
:100548000313181318121815831603178711193077
:100558008316031399009A019816831203139817A8
:1005680018131816080000300A128A1173220A128A
:100578008A1101300A128A1173220A128A1108009C
:0C058800F30073088312031385000800C1
:04400E00D420FF3F7C
:00000001FF
