:020000040000FA
:060000000A128A110E280D
:10000800FE00030EF7000408F8000A08F9000A12B7
:100018008A114F2A0A128A111128FA01FB01FC01E0
:10002800FD0183120313A701A801A90183010A1284
:100038008A11252CF3009728831203139F121F128D
:100048009F111F11E028831203139F121F129F1183
:100058001F15E028831203139F121F129F151F11EB
:10006800E028831203139F121F129F151F15E02803
:10007800831203139F121F169F111F11E02883126A
:1000880003139F121F169F111F15E02883120313D5
:100098009F121F169F151F11E028831203139F122A
:1000A8001F169F151F15E028831203139F161F1292
:1000B8009F111F11E028831203139F161F129F110F
:1000C8001F15E028831203139F161F129F151F1177
:1000D800E028831203139F161F129F151F15E0288F
:1000E800831203139F161F169F111F11E0288312F6
:1000F80003139F161F169F111F15E0288312031361
:100108009F161F169F151F11E028831203139F16B1
:100118001F169F151F15E028831203139F121F1225
:100128009F111F11E0287008F100F2017208003ACF
:1001380003199F2890287108003A03192028013ACA
:1001480003192728033A03192E28013A03193528D9
:10015800073A03193C28013A03194328033A0319BB
:100168004A28013A031951280F3A03195828013A25
:1001780003195F28033A03196628013A03196D2801
:10018800073A03197428013A03197B28033A03191B
:100198008228013A0319892890281F131F13F6286B
:1001A8001F131F17F6281F171F13F6281F171F17CF
:1001B800F6281F131F13F6287308F100F2017208BE
:1001C800003A0319E828DD287108003A0319D128F4
:1001D800013A0319D428033A0319D728013A031915
:1001E800DA28DD281F149F14831603139F010D308E
:1001F800F200FB30F100F10BFF28F20BFF28042975
:10020800080083120313A3005E299F121F129F1177
:100218001F11A7299F121F129F111F15A7299F128F
:100228001F129F151F11A7299F121F129F151F1517
:10023800A7299F121F169F111F11A7299F121F166A
:100248009F111F15A7299F121F169F151F11A72958
:100258009F121F169F151F15A7299F161F129F1162
:100268001F11A7299F161F129F111F15A7299F1637
:100278001F129F151F11A7299F161F129F151F15C3
:10028800A7299F161F169F111F11A7299F161F1612
:100298009F111F15A7299F161F169F151F11A72904
:1002A8009F161F169F151F15A7299F121F129F1112
:1002B8001F11A7292008A100A2012208003A03194A
:1002C800662959292108003A03190929013A03190D
:1002D8000E29033A03191329013A03191829073A71
:1002E80003191D29013A03192229033A0319272959
:1002F800013A03192C290F3A03193129013A031934
:100308003629033A03193B29013A03194029073AC8
:1003180003194529013A03194A29033A03194F29B0
:10032800013A0319542959291F131F13BD291F13F3
:100338001F17BD291F171F13BD291F171F17BD29F9
:100348001F131F13BD292308A100A2012208003A88
:100358000319AF29A4292108003A03199829013A59
:1003680003199B29033A03199E29013A0319A12964
:10037800A4291F149F14831603139F010D308312A1
:100388000313A200FB30A100A10BC829A20BC829A6
:1003980008002D2A0130F3007308A70728304E2AD9
:1003A8007D080F39F3007308F5000130F300730876
:1003B800A70775080A128A111F230A128A114E2AE2
:1003C8007D08F30004300310F30CFF3E031DE729FA
:1003D80073080F39F4007408F5000130F30073084E
:1003E800A70775080A128A111F230A128A114E2AB2
:1003F8000130F3007308A7072C304E2A7C080F3908
:10040800F3007308F5000130F3007308A7077508B7
:100418000A128A111F230A128A114E2A0130F30088
:100428007308A7077C08F30004300310F30CFF3EA1
:10043800031D192A73080F39F4007408F5007508AC
:100448000A128A111F230A128A114E2AA70129307B
:100458004E2A831203132708F300F4017408003AA4
:100468000319372A4E2A7308003A0319CE29013A8C
:100478000319D429033A0319E429013A0319FC2979
:10048800073A0319022A013A0319122A033A0319EF
:100498002A2A4E2A08008B130B1D532A542A5D2A38
:1004A800EC308312031381000130F6007608A907A7
:1004B8000B11831203130C1F622A632A8D2A7A08F0
:1004C800031D672A682A792A1E08F6007608FD00A7
:1004D8000530F6007608F00002300A128A111E2054
:1004E8000A128A11FA01FA0A882A1E08F600760802
:1004F800FC000630F6007608F00002300A128A1175
:100508001E200A128A11FA0183120313A801A80AED
:100518000C138C1E902A912AA82A1A08F60076082D
:10052800FB002B307B06031D9A2A9B2AA02A013048
:10053800F60076088607A82A2D307B06031DA52A13
:10054800A62AA82A013086020C1EAB2AAC2AB72A92
:100558000A128A11CD210A128A11831203139900F3
:10056800831603130C128B1779088A007808840005
:10057800770E8300FE0E7E0E090083120313A2007D
:10058800FB2A831603130F138F120F121D2B8316CA
:1005980003130F138F120F161D2B831603130F133C
:1005A8008F160F121D2B831603130F138F160F169A
:1005B8001D2B831603130F178F120F121D2B831673
:1005C80003130F178F120F161D2B831603130F1704
:1005D8008F160F121D2B831603130F178F160F1666
:1005E8001D2B831603130F178F160F121D2B2208AE
:1005F800A000A1012108003A0319032BF52A2008BD
:10060800003A0319C52A013A0319CB2A033A0319F8
:10061800D12A013A0319D72A073A0319DD2A013AE0
:100628000319E32A033A0319E92A013A0319EF2ABD
:10063800F52A0F140800F200412B30307B2B3130A3
:100648007B2B32307B2B33307B2B34307B2B35307C
:100658007B2B36307B2B37307B2B38307B2B39305C
:100668007B2B41307B2B42307B2B43307B2B443020
:100678007B2B45307B2B46307B2B7208F000F10139
:100688007108003A0319492B7B2B7008003A0319AB
:10069800212B013A0319232B033A0319252B013A7D
:1006A8000319272B073A0319292B013A03192B2B76
:1006B800033A03192D2B013A03192F2B0F3A03196B
:1006C800312B013A0319332B033A0319352B013A1D
:1006D8000319372B073A0319392B013A03193B2B16
:1006E800033A03193D2B013A03193F2B7B2B0800D2
:1006F80000300A128A1151240A128A110D3083120D
:100708000313A500FB30A400A40B882BA50B882B92
:1007180030300A128A1109240A128A11063083120B
:100728000313A5002F30A400A40B982BA50B982B1E
:100738009D2B30300A128A1109240A128A111D30A1
:1007480083120313A400A40BA72B30300A128A11BA
:1007580009240A128A1138300A128A1109240A1245
:100768008A1108300A128A1109240A128A110130E2
:100778000A128A1109240A128A1106300A128A11E9
:1007880009240A128A1108008312031385018601BD
:1007980087018801890183160317880188160817BD
:1007A800890183160313850186018030870088013B
:1007B800033089008B170B178B160B110C178C162F
:1007C8000C1606300A128A11C1220A128A11053043
:1007D80083120313A6002608A00002300A128A1109
:1007E80005210A128A110A128A113D240A128A1155
:1007F8000A128A117C230A128A11831203178501AF
:10080800D730831603138100080083120313A30053
:10081800081123080A128A1151240A128A11831214
:1008280003130814063083120313A2002F30A1000B
:10083800A10B1C2CA20B1C2C212C831203130810B7
:1008480008000A128A11C8230A128A110B3083126F
:1008580003132902031C312C322C2A2C9F148316D3
:1008680003130C1683120313A9012A2C0A128A11E6
:100878000E28831603131813181218158316031756
:10088800871119308316031399009A019816831259
:100898000313981718131816080083120313A000DF
:0608A80020088500080095
:04400E00D420FF3F7C
:00000001FF
