:020000040000FA
:060000000A128A110E280D
:10000800FE00030EF7000408F8000A08F9000A12B7
:100018008A11442A0A128A111128FA01FB01FC01EB
:10002800FD0183120313A701A801A90183010A1284
:100038008A11062CF3009728831203139F121F12AC
:100048009F111F11E028831203139F121F129F1183
:100058001F15E028831203139F121F129F151F11EB
:10006800E028831203139F121F129F151F15E02803
:10007800831203139F121F169F111F11E02883126A
:1000880003139F121F169F111F15E02883120313D5
:100098009F121F169F151F11E028831203139F122A
:1000A8001F169F151F15E028831203139F161F1292
:1000B8009F111F11E028831203139F161F129F110F
:1000C8001F15E028831203139F161F129F151F1177
:1000D800E028831203139F161F129F151F15E0288F
:1000E800831203139F161F169F111F11E0288312F6
:1000F80003139F161F169F111F15E0288312031361
:100108009F161F169F151F11E028831203139F16B1
:100118001F169F151F15E028831203139F121F1225
:100128009F111F11E0287008F100F2017208003ACF
:1001380003199F2890287108003A03192028013ACA
:1001480003192728033A03192E28013A03193528D9
:10015800073A03193C28013A03194328033A0319BB
:100168004A28013A031951280F3A03195828013A25
:1001780003195F28033A03196628013A03196D2801
:10018800073A03197428013A03197B28033A03191B
:100198008228013A0319892890281F131F13F6286B
:1001A8001F131F17F6281F171F13F6281F171F17CF
:1001B800F6281F131F13F6287308F100F2017208BE
:1001C800003A0319E828DD287108003A0319D128F4
:1001D800013A0319D428033A0319D728013A031915
:1001E800DA28DD281F149F14831603139F010D308E
:1001F800F200FB30F100F10BFF28F20BFF28042975
:10020800080083120313A3005E299F121F129F1177
:100218001F11A7299F121F129F111F15A7299F128F
:100228001F129F151F11A7299F121F129F151F1517
:10023800A7299F121F169F111F11A7299F121F166A
:100248009F111F15A7299F121F169F151F11A72958
:100258009F121F169F151F15A7299F161F129F1162
:100268001F11A7299F161F129F111F15A7299F1637
:100278001F129F151F11A7299F161F129F151F15C3
:10028800A7299F161F169F111F11A7299F161F1612
:100298009F111F15A7299F161F169F151F11A72904
:1002A8009F161F169F151F15A7299F121F129F1112
:1002B8001F11A7292008A100A2012208003A03194A
:1002C800662959292108003A03190929013A03190D
:1002D8000E29033A03191329013A03191829073A71
:1002E80003191D29013A03192229033A0319272959
:1002F800013A03192C290F3A03193129013A031934
:100308003629033A03193B29013A03194029073AC8
:1003180003194529013A03194A29033A03194F29B0
:10032800013A0319542959291F131F13BD291F13F3
:100338001F17BD291F171F13BD291F171F17BD29F9
:100348001F131F13BD292308A100A2012208003A88
:100358000319AF29A4292108003A03199829013A59
:1003680003199B29033A03199E29013A0319A12964
:10037800A4291F149F14831603139F010D308312A1
:100388000313A200FB30A100A10BC829A20BC829A6
:100398000800272A7D080F39F3007308F50001309B
:1003A800F3007308FA0775080A128A1101230A1262
:1003B8008A11432A7D08F30004300310F30CFF3E32
:1003C800031DE12973080F39F4007408F5000130A2
:1003D800F3007308FA0775080A128A1101230A1232
:1003E8008A11432A0130F3007308FA072C30432A94
:1003F8007C080F39F3007308F5000130F300730827
:10040800FA0775080A128A1101230A128A11432A67
:100418000130F3007308FA077C08F3000430031076
:10042800F30CFF3E031D132A73080F39F4007408F8
:10043800F50075080A128A1101230A128A11432A43
:10044800FA010A30432A7A08F300F4017408003AE2
:1004580003192F2A432A7308003A0319CE29013AAF
:100468000319DE29033A0319F629013A0319FC296D
:10047800073A03190C2A013A0319242A432A0800C7
:100488008B130B1D482A492A522AEC308312031376
:1004980081000130F6007608A9070B1183120313B7
:1004A8000C1F572A582A822A7B08031D5C2A5D2ABA
:1004B8006E2A1E08F6007608FD000530F60076085C
:1004C800F00002300A128A111E200A128A11FB015A
:1004D800FB0A7D2A1E08F6007608FC000630F600A6
:1004E8007608F00002300A128A111E200A128A11B8
:1004F800FB0183120313A801A80A0C138C1E852A7A
:10050800862A8A2A1A08F6007608A7000C1E8D2A61
:100518008E2A992A0A128A11CD210A128A11831267
:1005280003139900831603130C128B1779088A009A
:1005380078088400770E8300FE0E7E0E0900831271
:100548000313A200DD2A831603130F138F120F1251
:10055800FF2A831603130F138F120F16FF2A831611
:1005680003130F138F160F12FF2A831603130F138B
:100578008F160F16FF2A831603130F178F120F12E9
:10058800FF2A831603130F178F120F16FF2A8316DD
:1005980003130F178F160F12FF2A831603130F1753
:1005A8008F160F16FF2A831603130F178F160F12B5
:1005B800FF2A2208A000A1012108003A0319E52A10
:1005C800D72A2008003A0319A72A013A0319AD2AA5
:1005D800033A0319B32A013A0319B92A073A031946
:1005E800BF2A013A0319C52A033A0319CB2A013A4B
:1005F8000319D12AD72A0F140800F200232B303010
:100608005D2B31305D2B32305D2B33305D2B343038
:100618005D2B35305D2B36305D2B37305D2B383018
:100628005D2B39305D2B41305D2B42305D2B4330E3
:100638005D2B44305D2B45305D2B46305D2B7208B9
:10064800F000F1017108003A03192B2B5D2B70089B
:10065800003A0319032B013A0319052B033A03192E
:10066800072B013A0319092B073A03190B2B013AF7
:1006780003190D2B033A03190F2B013A0319112BF8
:100688000F3A0319132B013A0319152B033A0319CF
:10069800172B013A0319192B073A03191B2B013A97
:1006A80003191D2B033A03191F2B013A0319212B98
:1006B8005D2B080000300A128A1132240A128A11AE
:1006C8000D3083120313A500FB30A400A40B6A2B82
:1006D800A50B6A2B30300A128A11EA230A128A11F2
:1006E800063083120313A5002F30A400A40B7A2B25
:1006F800A50B7A2B7F2B30300A128A11EA230A12B3
:100708008A111D3083120313A400A40B892B3030E7
:100718000A128A11EA230A128A1138300A128A1137
:10072800EA230A128A1108300A128A11EA230A12E5
:100738008A1101300A128A11EA230A128A11063034
:100748000A128A11EA230A128A1108008312031373
:1007580085018601870188018901831603178801AD
:1007680088160817890183160313850186018701F6
:100778008801033089008B170B178B160B110C1788
:100788008C160C1606300A128A11A3220A128A1134
:10079800053083120313A6002608A00002300A12AF
:1007A8008A1105210A128A110A128A111E240A12B4
:1007B8008A110A128A115E230A128A1183120317F8
:1007C8008501D730831603138100080083120313B1
:1007D800A300081123080A128A1132240A128A1166
:1007E800831203130814063083120313A2002F3058
:1007F800A100A10BFD2BA20BFD2B022C83120313CE
:10080800081008000A128A11AA230A128A110B304A
:10081800831203132902031C122C132C0B2C9F1474
:10082800831603130C1683120313A9010B2C0A1247
:100838008A110E2883160313181318121815831615
:100848000317871119308316031399009A01981614
:10085800831203139817181318160800831203132A
:08086800A00020088500080033
:04400E00D420FF3F7C
:00000001FF
