:020000040000FA
:060000000A128A110C280F
:10000800FE00030EF2000A08F3000A128A1197296B
:100018000A128A110F28F801F90183010A128A11BC
:10002800D929F7008E28831203139F121F129F11DC
:100038001F11D728831203139F121F129F111F1518
:10004800D728831203139F121F129F151F11D72839
:10005800831203139F121F129F151F15D72883128F
:1000680003139F121F169F111F11D7288312031302
:100078009F121F169F111F15D728831203139F1253
:100088001F169F151F11D728831203139F121F16BF
:100098009F151F15D728831203139F161F129F1130
:1000A8001F11D728831203139F161F129F111F15A4
:1000B800D728831203139F161F129F151F11D728C5
:1000C800831203139F161F129F151F15D72883121B
:1000D80003139F161F169F111F11D728831203138E
:1000E8009F161F169F111F15D728831203139F16DB
:1000F8001F169F151F11D728831203139F161F164B
:100108009F151F15D728831203139F121F129F11C3
:100118001F11D7287408F500F6017608003A03196C
:10012800962887287508003A03191728013A0319F1
:100138001E28033A03192528013A03192C28073ADF
:1001480003193328013A03193A28033A03194128B5
:10015800013A031948280F3A03194F28013A03199D
:100168005628033A03195D28013A03196428073A07
:1001780003196B28013A03197228033A03197928DD
:10018800013A0319802887281F131F13ED281F130E
:100198001F17ED281F171F13ED281F171F17ED280E
:1001A8001F131F13ED287708F500F6017608003AAB
:1001B8000319DF28D4287508003A0319C828013A1A
:1001C8000319CB28033A0319CE28013A0319D12879
:1001D800D4281F149F14831603139F010F30F600B1
:1001E8004730F500F50BF628F60BF628FB28080033
:1001F800F6003429831603130F138F120F12562992
:10020800831603130F138F120F1656298316031321
:100218000F138F160F125629831603130F138F16F9
:100228000F165629831603130F178F120F1256290C
:10023800831603130F178F120F16562983160313ED
:100248000F178F160F125629831603130F178F16C1
:100258000F165629831603130F178F160F125629D8
:100268007608F400F5017508003A03193C292E298F
:100278007408003A0319FE28013A03190429033ABD
:1002880003190A29013A03191029073A03191629EB
:10029800013A03191C29033A03192229013A0319BF
:1002A80028292E290F1408008312031385018601BB
:1002B8008701880189018316031788018816890137
:1002C80020308316031385008601183087008801C3
:1002D800013089008B170B178C158B160B110C1717
:1002E80006300A128A11FC200A128A11053083127C
:1002F8000313A0002008F40002300A128A11152006
:100308000A128A11F401F501F60124300A128A1141
:10031800C3210A128A11831203178501D730831665
:100328000313810008008B130B1D9B299C29A52909
:10033800EC308312031381000130F1007108F807D3
:100348000B11831203138C1DAA29AB29B4290608A3
:100358000A128A11EC210A128A11831203138C11D2
:100368000C1FB729B829BB291E0886000C138B1748
:1003780073088A00720E8300FE0E7E0E0900F700D5
:10038800831603138712771DCA29CB29CF2976082C
:1003980094008715D3297408760494008711770888
:1003A800750483120313940008000A128A11582155
:1003B8000A128A110B307802031CE329E429DE298A
:1003C800831203139F14F801DE290A128A110C28DC
:0C03D800F000700883120313930008006B
:04400E00D420FF3F7C
:00000001FF
