:020000040000FA
:060000000A128A110C280F
:10000800FE00030EF2000A08F3000A128A11D12931
:100018000A128A110F28F801F90183010A128A11BC
:100028009829F7008E28831203139F121F129F111D
:100038001F11D728831203139F121F129F111F1518
:10004800D728831203139F121F129F151F11D72839
:10005800831203139F121F129F151F15D72883128F
:1000680003139F121F169F111F11D7288312031302
:100078009F121F169F111F15D728831203139F1253
:100088001F169F151F11D728831203139F121F16BF
:100098009F151F15D728831203139F161F129F1130
:1000A8001F11D728831203139F161F129F111F15A4
:1000B800D728831203139F161F129F151F11D728C5
:1000C800831203139F161F129F151F15D72883121B
:1000D80003139F161F169F111F11D728831203138E
:1000E8009F161F169F111F15D728831203139F16DB
:1000F8001F169F151F11D728831203139F161F164B
:100108009F151F15D728831203139F121F129F11C3
:100118001F11D7287408F500F6017608003A03196C
:10012800962887287508003A03191728013A0319F1
:100138001E28033A03192528013A03192C28073ADF
:1001480003193328013A03193A28033A03194128B5
:10015800013A031948280F3A03194F28013A03199D
:100168005628033A03195D28013A03196428073A07
:1001780003196B28013A03197228033A03197928DD
:10018800013A0319802887281F131F13ED281F130E
:100198001F17ED281F171F13ED281F171F17ED280E
:1001A8001F131F13ED287708F500F6017608003AAB
:1001B8000319DF28D4287508003A0319C828013A1A
:1001C8000319CB28033A0319CE28013A0319D12879
:1001D800D4281F149F141030831603139F000F3068
:1001E800F6004730F500F50BF728F60BF728FC2842
:1001F8000800F6003529831603130F138F120F1208
:100208005729831603130F138F120F1657298316B6
:1002180003130F138F160F125729831603130F1387
:100228008F160F165729831603130F178F120F12E5
:100238005729831603130F178F120F165729831682
:1002480003130F178F160F125729831603130F174F
:100258008F160F165729831603130F178F160F12B1
:1002680057297608F400F5017508003A03193D2965
:100278002F297408003A0319FF28013A03190529A0
:10028800033A03190B29013A03191129073A0319EB
:100298001729013A03191D29033A03192329013A99
:1002A800031929292F290F14080083120313850124
:1002B800860187018801890183160317880188163A
:1002C80089012830831603138500860118308700BA
:1002D8008801013089008B170B178C158B160B11B1
:1002E8000C1706300A128A11FD200A128A110530ED
:1002F80083120313A0002008F40002300A128A11A6
:1003080015200A128A11F401F501F60124300A12A7
:100318008A11FD210A128A11831203178501D73029
:1003280083160313810008000A128A1159210A1240
:100338008A110B307802031CA229A329A72983124A
:1003480003139F14F80133308312031306020318B2
:10035800AE29AF29B3290810881008159D29333014
:100368000602031CB829B929C3293A300602031822
:10037800BE29BF29C3290810881408119D293A30BD
:100388000602031CC829C929CD2908148810081198
:100398009D299D290A128A110C288B130B1DD5291A
:1003A800D629DF29EC308312031381000130F100D4
:1003B8007108F8070B11831203138C1DE429E52932
:1003C800EE2906080A128A1113220A128A118312C8
:1003D80003138C110C1FF129F229F5291E08860038
:1003E8000C138B1773088A00720E8300FE0E7E0EA4
:1003F8000900F700831603138712771D042A052ABC
:10040800092A7608940087150D2A74087604940042
:100418008711770875048312031394000800F0000D
:0A042800700883120313930008000C
:04400E00D420FF3F7C
:00000001FF
