:020000040000FA
:060000000A128A11FA2F1A
:100F580083120313860183160317880189018316F8
:100F680003138601061008000A128A11AC270A1218
:100F78008A1164300A128A11CD270A128A110130A7
:100F8800F6007608831203138607BD2F0A128A110A
:100F98000028F300F101F201EC2FF401F501013012
:100FA800F4070318F50A0030F5077508803AFF00C2
:100FB80080307F02031DE22FFF307402031CE52FEF
:100FC800E62FD32F0130F1070318F20A0030F20799
:100FD8007208803AF00080307002031DF52F730804
:100FE8007102031CF82FF92FD12F0800F701F8011F
:080FF80083010A128A11B82FCF
:04400E00FF3FFF3F32
:00000001FF
