:020000040000FA
:060000000A128A110E280D
:10000800FE00030EF6000408F7000A08F8000A12BA
:100018008A11F62E0A128A111128F9018313373032
:10002800840049300A128A11E9270A128A118301C9
:100038000A128A11DE29333083120313A600003016
:10004800A7004608AF00B0012F08A0003008A100A3
:100058006430A2000030A3000A128A111F270A1276
:100068008A11831203132108A9002008A8000A1284
:100078008A115B240A128A11831203132708B2001B
:100088002608B1006430A0000030A1003208A300A7
:100098003108A2000A128A11DD250A128A11831278
:1000A80003132008AF002F08BD003D08AF00B001C2
:1000B8002F08A0003008A1009C30A200FF30A30048
:1000C8000A128A111F270A128A1183120313310890
:1000D8002007B10032080318320A2107B2000A309B
:1000E800A0000030A1003208A3003108A2000A12C3
:1000F8008A11DD250A128A11831203132008AF0022
:100108002F08BC003C08AF00B0012F08A000300841
:10011800A100F630A200FF30A3000A128A111F279F
:100128000A128A118312031331082007B10032081A
:100138000318320A2107B2003108AF002F08BB00AC
:10014800A401A40A02300A128A1164270A128A1129
:10015800831203133D080A128A1123260A128A11F0
:100168000A128A11CD260A128A1102308312031349
:10017800AF002F08A40002300A128A1164270A125D
:100188008A1127300A128A11CD260A128A110330E1
:1001980083120313AF002F08A40002300A128A1139
:1001A80064270A128A11831203133C080A128A115F
:1001B80023260A128A110A128A11CD260A128A11D6
:1001C800043083120313AF002F08A40002300A1270
:1001D8008A1164270A128A11831203133B080A1230
:1001E8008A1123260A128A110A128A11CD260A12A6
:1001F8008A11053083120313AF002F08A4000230C0
:100208000A128A1164270A128A110800A3290130E8
:10021800F3007308F9072830DD290130F30073086B
:10022800F907831203133D080A128A1180250A125E
:100238008A11DD290130F3007308F9072E30DD2912
:100248000130F3007308F907831203133C080A12FC
:100258008A1180250A128A11DD290130F3007308FA
:10026800F907831203133B080A128A1180250A1220
:100278008A11DD290130F3007308F9072C30DD29D4
:100288000130F3007308F907831203133A080A12BE
:100298008A1180250A128A11DD290130F3007308BA
:1002A800F9078312031339080A128A1180250A12E2
:1002B8008A11DD290130F3007308F907831203134B
:1002C80038080A128A1180250A128A11DD2901309C
:1002D800F3007308F907831203133708DD29013087
:1002E800F3007308F9078312031340080A128A11EE
:1002F80080250A128A11DD290130F3007308F907F5
:10030800831203133F080A128A1180250A128A11E0
:10031800DD290130F3007308F907831203133E083F
:100328000A128A1180250A128A11DD290130F30088
:100338007308F9072930DD29F9010D30DD2979081D
:10034800F300F4017408003A0319AB29DD29730896
:10035800003A03190B29013A03191129033A031921
:100368001E29013A03192429073A03193129013AA8
:1003780003193E29033A03194429013A031951295B
:100388000F3A03195E29013A03193E29033A031962
:100398006B29013A03197329073A03198029013A8D
:1003A80003198D29033A03199A29013A0319A02937
:1003B800DD2908000A128A1164260A128A1183129A
:1003C8000313A401A40A01300A128A1164270A122D
:1003D8008A110B300A128A11CD260A128A110630A8
:1003E80083120313B5003508A40001300A128A11DC
:1003F80064270A128A1106300A128A11CD260A12B7
:100408008A110C3083120313B5003508A40001309B
:100418000A128A1164270A128A1101300A128A11F3
:10042800CD260A128A110B30831203134502031CCE
:100438001E2A1F2A172A762A071087140715003044
:100448000A128A11F8270A128A110A128A11E02759
:100458000A128A1183120313B5003508C6000A125E
:100468008A111F200A128A11013083120313B50062
:100478003508C407892A07148710071500300A129F
:100488008A11F8270A128A110A128A11E0270A1219
:100498008A1183120313B5003508C3004308880086
:1004A8000A128A113F230A128A11382A071487145C
:1004B800071100300A128A11F8270A128A110A1243
:1004C8008A11E0270A128A1183120313B50035082E
:1004D800C2000A128A11EB230A128A11831203132B
:1004E800C401892A4408B500B6013608003A031940
:1004F8007E2A892A3508003A0319202A013A031965
:100508003F2A033A03195A2A892A831603130C1619
:1005180083120313C501172A0A128A110E2883129F
:1005280003134108AF002F08B2006430A600003062
:10053800A7003208AF00B0012F08A8003008A900B2
:100548000A128A115B240A128A11831203132608DD
:10055800B1003108C0009C30AF002F08A00040084F
:100568000A128A11B5270A128A1183120313320755
:10057800B0003008B2000A30A6000030A7003208E8
:10058800AF00B0012F08A8003008A9000A128A118C
:100598005B240A128A11831203132608B10031085A
:1005A800BF00F630AF002F08A0003F080A128A11DA
:1005B800B5270A128A11831203133207B0003008D4
:1005C800B2003208AF002F08BE000D30AF002F0870
:1005D800A40002300A128A1164270A128A118312AF
:1005E800031340080A128A1123260A128A110A12D2
:1005F8008A11CD260A128A110E3083120313AF0016
:100608002F08A40002300A128A1164270A128A11DC
:10061800831203133F080A128A1123260A128A1129
:100628000A128A11CD260A128A110F308312031377
:10063800AF002F08A40002300A128A1164270A1298
:100648008A11831203133E080A128A1123260A12FA
:100658008A110A128A11CD260A128A1110308312C1
:100668000313AF002F08A40002300A128A1164276E
:100678000A128A110800831203130808AF002F0812
:10068800B2006430A6000030A7003208AF00B00105
:100698002F08A8003008A9000A128A115B240A1240
:1006A8008A11831203132608B1003108BA009C305E
:1006B800AF002F08A0003A080A128A11B5270A12BB
:1006C8008A11831203133207B0003008B2000A30CF
:1006D800A6000030A7003208AF00B0012F08A8001C
:1006E8003008A9000A128A115B240A128A1183129F
:1006F80003132608B1003108B900F630AF002F08FF
:10070800A00039080A128A11B5270A128A11831221
:1007180003133207B0003008B2003208AF002F08C8
:10072800B8000730AF002F08A40002300A128A115F
:1007380064270A128A11831203133A080A128A11CB
:1007480023260A128A110A128A11CD260A128A1140
:10075800083083120313AF002F08A40002300A12D6
:100768008A1164270A128A118312031339080A129C
:100778008A1123260A128A110A128A11CD260A1210
:100788008A11093083120313AF002F08A400023026
:100798000A128A1164270A128A118312031338086D
:1007A8000A128A1123260A128A110A128A11CD26E0
:1007B8000A128A110A3083120313AF002F08A4000B
:1007C80002300A128A1164270A128A11080080303E
:1007D80083120313A6000030A7004208B300B40137
:1007E8003308A0003408A100CD30A2000030A300D7
:1007F8000A128A111F270A128A1183120313210869
:10080800A9002008A8000A128A115B240A128A117A
:10081800831203132608C93EC70027080318013EA0
:10082800FF3EC800C81F192C1A2C3B2C4703FF3A5F
:10083800B3003308C1000C30B3003308A400023001
:100848000A128A1164270A128A1125300A128A119B
:10085800CD260A128A110A128A1193220A128A11C3
:100868002D3083120313B3003308B7005A2C4708FE
:10087800B3003308C1000C30B3003308A4000230C1
:100888000A128A1164270A128A1123300A128A115D
:10089800CD260A128A110A128A1193220A128A1183
:1008A8002B3083120313B3003308B70008008312F8
:1008B8000313AC01A71F612C622C692CA609A70998
:1008C800A60A0319A70AAC01AC0AA91F6C2C6D2C47
:1008D800762CA809A909A80A0319A90A0130AA00AF
:1008E8002A08AC06AD01AE012608270403197D2CA1
:1008F8007E2CB52CAB01AB0A8C2C01300310A60D55
:10090800A70DFF3E031D822C0130AA002A08AB0761
:10091800A71F8F2C902C812C01300310AD0DAE0D2C
:10092800FF3E031D912C27082902031D9D2C260834
:100938002802031CA02CA12CA82C2608A8022708F2
:10094800031CA903A9022D1401300310A70CA60C3F
:10095800FF3E031DA92C0130AB02031DB42CB52C9E
:10096800902C2C080319B92CBA2CBF2CAD09AE0950
:10097800AD0A0319AE0A2E08A7002D08A600080024
:1009880083120313A200FE2C831603130F138F1276
:100998000F12202D831603130F138F120F16202DFD
:1009A800831603130F138F160F12202D83160313AC
:1009B8000F138F160F16202D831603130F178F1280
:1009C8000F12202D831603130F178F120F16202DC9
:1009D800831603130F178F160F12202D8316031378
:1009E8000F178F160F16202D831603130F178F1648
:1009F8000F12202D2208A000A1012108003A031996
:100A0800062DF82C2008003A0319C82C013A0319BE
:100A1800CE2C033A0319D42C013A0319DA2C073ADD
:100A28000319E02C013A0319E62C033A0319EC2CBC
:100A3800013A0319F22CF82C0F1408001430831211
:100A48000313A5007930A400A40B282DA50B282D8D
:100A580000300A128A15FA270A128A111A308312EC
:100A68000313A500F730A400A40B382DA50B382DCF
:100A78003D2D30300A128A1182270A128A11073056
:100A880083120313A5007C30A400A40B492DA50BE9
:100A9800492D000030300A128A1182270A128A1161
:100AA800343083120313A400A40B582D00003030F7
:100AB8000A128A1182270A128A1138300A128A11F8
:100AC80082270A128A1110300A128A1182270A1202
:100AD8008A1101300A128A1182270A128A110630F5
:100AE8000A128A1182270A128A110C300A128A11F4
:100AF80082270A128A110800F200A22D3030DC2D5C
:100B08003130DC2D3230DC2D3330DC2D3430DC2D2F
:100B18003530DC2D3630DC2D3730DC2D3830DC2D0F
:100B28003930DC2D4130DC2D4230DC2D4330DC2DDA
:100B38004430DC2D4530DC2D4630DC2D7208F000C9
:100B4800F1017108003A0319AA2DDC2D7008003A4A
:100B58000319822D013A0319842D033A0319862DAE
:100B6800013A0319882D073A03198A2D013A031906
:100B78008C2D033A03198E2D013A0319902D0F3A43
:100B88000319922D013A0319942D033A0319962D4E
:100B9800013A0319982D073A03199A2D013A0319B6
:100BA8009C2D033A03199E2D013A0319A02DDC2D23
:100BB800080083120313A501A601200821040319C4
:100BC800E62DE72D1E2EA701A70AF52D01300310EB
:100BD800A00DA10DFF3E031DEB2D0130A40024083C
:100BE800A707A11FF82DF92DEA2D01300310A50D37
:100BF800A60DFF3E031DFA2D21082302031D062E14
:100C080020082202031C092E0A2E112E2008A202F7
:100C18002108031CA303A302251401300310A10C0F
:100C2800A00CFF3E031D122E0130A702031D1D2E2E
:100C38001E2EF92D2608A1002508A0000800831201
:100C48000313A2003B2E0F30632E1130632E133096
:100C5800632E1530632E1730632E1930632E1B3028
:100C6800632E1D30632E1F30632E2130632E220821
:100C7800A000A1012108003A0319432E632E200881
:100C8800003A0319272E013A0319292E033A0319AA
:100C98002B2E013A03192D2E073A03192F2E013A4C
:100CA8000319312E033A0319332E013A0319352E4D
:100CB8000F3A0319372E013A0319392E632E08000B
:100CC8008312031385018601870188018901831630
:100CD8000317880189018316031385018601903063
:100CE8008700880189018B170B178B160B110C16BF
:100CF80006300A128A11C4240A128A110A128A11A9
:100D080022250A128A110A128A11CC270A128A117C
:100D180083120313A001A101A20120300A128A1133
:100D280046270A128A11831203178501D7308316C2
:100D380003138100080006308A000408840A820729
:100D48000034543445344D345034003443344F3433
:100D58004E34543400344134443443340034303451
:100D68000034313400343234003433340034343411
:100D780000343534003436340034373400343834F1
:100D88000034393400342B3400342D3400342E34FC
:100D9800003483120313A500A301A401E82E23083D
:100DA800250784000A128A119F260A128A110A123C
:100DB8008A119D270A128A11013083120313A3078F
:100DC8000318A40A0030A4072308250784000A1280
:100DD8008A119F260A128A11003A031DF42EF52E55
:100DE800D32E08008B130B1DFA2EFB2E042FEC308C
:100DF8008312031381000130F5007508C5070B1134
:100E0800831203130C1E092F0A2F152F0A128A1199
:100E18000A210A128A1183120313990083160313F5
:100E28000C128B1778088A0077088400760E8300E6
:100E3800FE0E7E0E090083120313A401A501201CD7
:100E4800262F272F2D2F2208A4070318A50A2308C9
:100E5800A50701300310A20DA30DFF3E031D2E2F81
:100E680001300310A10CA00CFF3E031D352F2008F4
:100E78002104031D402F412F232F2508A1002408FA
:100E8800A000080083120313A3008316031387121C
:100E980083120313231D512F522F582F2208831614
:100EA8000313940087155E2F20082204831603136A
:100EB8009400871183120313230821049400080067
:100EC80083120313A5002503031D6B2F6C2F742FAA
:100ED80024087F3E0A128A1182270A128A11812F5A
:100EE80002302506031D792F7A2F812F2408BF3E53
:100EF8000A128A1182270A128A1108008312031320
:100F0800A300891023080A128A15FA270A128A11DF
:100F18008312031309140D3083120313A200FB304C
:100F2800A100A10B952FA20B952F83120313091073
:100F3800080083120313A200891422080A128A15D2
:100F4800FA270A128A118312031309140C30831228
:100F58000313A100A10BAE2F000083120313091085
:100F6800080083120313A300A201231CBC2FBD2F6A
:100F7800C12F2008A1002108A2070310A00D03100B
:100F8800A30C2308031DC92FCA2FB92F2208080054
:100F980083160313181318121815831603178711CD
:100FA80019308316031399009A01981683120313B4
:100FB80098171813181608000A128A11F1270A122E
:100FC8008A11831203131308080064008001840A3D
:100FD8000406031900340406EA2F83160313141CAD
:100FE800F62FF72FF12F080083120313A000200813
:040FF800930008005A
:0C1FF40083120313A000200885000800E1
:04400E00D420FF3F7C
:00000001FF
