:020000040000FA
:060000000A128A110E280D
:10000800FE00030EF7000408F8000A08F9000A12B7
:100018008A11532D0A128A111128FA018312031327
:10002800B801B901BA01BB01BC0183010A128A11E6
:10003800B429333083120313A6000030A7003C080C
:10004800AF00B0012F08A0003008A1006430A20062
:100058000030A3000A128A117C250A128A11831221
:1000680003132108A9002008A8000A128A115322A4
:100078000A128A11831203132708B5002608B40050
:100088006430A0000030A1003508A3003408A200A5
:100098000A128A1134240A128A11831203132008BF
:1000A800AF002F08B2003208AF00B0012F08A0003F
:1000B8003008A1009C30A200FF30A3000A128A1168
:1000C8007C250A128A118312031334082007B4000E
:1000D80035080318350A2107B5000A30A00000309A
:1000E800A1003508A3003408A2000A128A1134249A
:1000F8000A128A11831203132008AF002F08B300D5
:100108003308AF00B0012F08A0003008A100F63076
:10011800A200FF30A3000A128A117C250A128A1154
:100128008312031334082007B40035080318350A6E
:100138002107B5003408AF002F08B100A401A40AB4
:1001480002300A128A11C1250A128A118312031376
:1001580032080A128A117A240A128A110A128A119A
:100168002A250A128A11023083120313AF002F08BE
:10017800A40002300A128A11C1250A128A112330FA
:100188000A128A112A250A128A11033083120313CC
:10019800AF002F08A40002300A128A11C1250A12E2
:1001A8008A118312031333080A128A117A240A1255
:1001B8008A110A128A112A250A128A110430831216
:1001C8000313AF002F08A40002300A128A11C125B8
:1001D8000A128A118312031331080A128A117A2427
:1001E8000A128A110A128A112A250A128A1105305E
:1001F80083120313AF002F08A40002300A128A11D9
:10020800C1250A128A110800831203130808AF00D7
:100218002F08B5006430A6000030A7003508AF00ED
:10022800B0012F08A8003008A9000A128A11532229
:100238000A128A11831203132608B1003108B30089
:100248009C30AF002F08A00033080A128A1112262A
:100258000A128A11831203133507B0003008B5005B
:100268000A30A6000030A7003508AF00B0012F08FB
:10027800A8003008A9000A128A1153220A128A110A
:10028800831203132608B1003108B400F630AF001A
:100298002F08A00034080A128A1112260A128A119D
:1002A800831203133507B0003008B5003508AF00D6
:1002B8002F08B2000730AF002F08A40002300A123E
:1002C8008A11C1250A128A118312031333080A12EC
:1002D8008A117A240A128A110A128A112A250A1204
:1002E8008A11083083120313AF002F08A4000230CC
:1002F8000A128A11C1250A128A11831203133408BB
:100308000A128A117A240A128A110A128A112A25D3
:100318000A128A11093083120313AF002F08A400B0
:1003280002300A128A11C1250A128A118312031394
:1003380032080A128A117A240A128A110A128A11B8
:100348002A250A128A110A3083120313AF002F08D4
:10035800A40002300A128A11C1250A128A11080063
:100368000A128A11BB240A128A110230831203135B
:10037800B6003608A40001300A128A11C1250A12F3
:100388008A110B300A128A112A250A128A1107309B
:1003980083120313B6003608A40001300A128A112A
:1003A800C1250A128A1106300A128A112A250A1250
:1003B8008A110D3083120313B6003608A4000130E9
:1003C8000A128A11C1250A128A1101300A128A11E9
:1003D8002A250A128A110B30831203133B02031CCD
:1003E800F629F729EF29362A071087140715003050
:1003F8000A128A114D260A128A110A128A113D26FA
:100408000A128A1183120313B6003608BC008C1135
:100418000A128A111D200A128A110130831203134D
:10042800B6003608BA07492A07148710071500309E
:100438000A128A114D260A128A110A128A113D26B9
:100448000A128A1183120313B6003608B800380856
:1004580088008C110A128A1108210A128A11112A9D
:10046800BA01492A3A08B600B7013708003A031911
:100478003E2A492A3608003A0319F829013A03198D
:10048800182A033A0319342A492A831603130C1627
:1004980083120313BB01EF290A128A110E28831253
:1004A8000313AC01A71F592A5A2A612AA609A709CA
:1004B800A60A0319A70AAC01AC0AA91F642A652A6F
:1004C8006E2AA809A909A80A0319A90A0130AA00CD
:1004D8002A08AC06AD01AE01260827040319752ABF
:1004E800762AAD2AAB01AB0A842A01300310A60D87
:1004F800A70DFF3E031D7A2A0130AA002A08AB0780
:10050800A71F872A882A792A01300310AD0DAE0D5E
:10051800FF3E031D892A27082902031D952A26085C
:100528002802031C982A992AA02A2608A802270824
:10053800031CA903A9022D1401300310A70CA60C53
:10054800FF3E031DA12A0130AB02031DAC2AAD2AD0
:10055800882A2C080319B12AB22AB72AAD09AE098C
:10056800AD0A0319AE0A2E08A7002D08A600080038
:10057800FE2A0130F3007308FA0728301A2B831279
:1005880003133C08F30004300310F30CFF3E031D73
:10059800C82A73080F39F4007408F5000130F30015
:1005A8007308FA0775080A128A11D7230A128A11E2
:1005B8001A2B831203133C080F39F3007308F50054
:1005C8000130F3007308FA0775080A128A11D72355
:1005D8000A128A111A2B0130F3007308FA072C301B
:1005E8001A2B0130F3007308FA0729301A2BFA0185
:1005F8000D301A2B7A08F300F4017408003A031935
:10060800062B1A2B7308003A0319BD2A013A03195D
:10061800C32A033A0319DD2A013A0319EF2A073AD4
:100628000319F52A013A0319FB2A1A2B0800831229
:100638000313A200552B831603130F138F120F12E7
:10064800772B831603130F138F120F16772B83162E
:1006580003130F138F160F12772B831603130F1321
:100668008F160F16772B831603130F178F120F127F
:10067800772B831603130F178F120F16772B8316FA
:1006880003130F178F160F12772B831603130F17E9
:100698008F160F16772B831603130F178F160F124B
:1006A800772B2208A000A1012108003A03195D2B2D
:1006B8004F2B2008003A03191F2B013A0319252B49
:1006C800033A03192B2B013A0319312B073A031963
:1006D800372B013A03193D2B033A0319432B013AEF
:1006E8000319492B4F2B0F140800143083120313DE
:1006F800A5007930A400A40B7F2BA50B7F2B00301D
:100708000A128A1153260A128A111A308312031305
:10071800A500F730A400A40B8F2BA50B8F2B942BCF
:1007280030300A128A11DF250A128A110730831223
:100738000313A5007C30A400A40BA02BA50BA02BB1
:10074800000030300A128A11DF250A128A1134306B
:1007580083120313A400A40BAF2B000030300A123D
:100768008A11DF250A128A1138300A128A11DF2508
:100778000A128A1110300A128A11DF250A128A1108
:1007880001300A128A11DF250A128A1106300A126C
:100798008A11DF250A128A110C300A128A11DF2504
:1007A8000A128A110800F200F92B3030332C31304C
:1007B800332C3230332C3330332C3430332C353027
:1007C800332C3630332C3730332C3830332C393007
:1007D800332C4130332C4230332C4330332C4430CB
:1007E800332C4530332C4630332C7208F000F1019D
:1007F8007108003A0319012C332C7008003A0319C8
:10080800D92B013A0319DB2B033A0319DD2B013AE3
:100818000319DF2B073A0319E12B013A0319E32BDC
:10082800033A0319E52B013A0319E72B0F3A031989
:10083800E92B013A0319EB2B033A0319ED2B013A83
:100848000319EF2B073A0319F12B013A0319F32B7C
:10085800033A0319F52B013A0319F72B332C080037
:1008680083120313A501A6012008210403193D2CB6
:100878003E2C752CA701A70A4C2C01300310A00DA3
:10088800A10DFF3E031D422C0130A4002408A70738
:10089800A11F4F2C502C412C01300310A50DA60D83
:1008A800FF3E031D512C21082302031D5D2C200847
:1008B8002202031C602C612C682C2008A20221084B
:1008C800031CA303A302251401300310A10CA00CE0
:1008D800FF3E031D692C0130A702031D742C752CE3
:1008E800502C2608A1002508A00008008312031335
:1008F800A200922C0F30BA2C1130BA2C1330BA2C1B
:100908001530BA2C1730BA2C1930BA2C1B30BA2C27
:100918001D30BA2C1F30BA2C2130BA2C2208A00066
:10092800A1012108003A03199A2CBA2C2008003A90
:1009380003197E2C013A0319802C033A0319822CDF
:10094800013A0319842C073A0319862C013A031932
:10095800882C033A03198A2C013A03198C2C0F3A74
:1009680003198E2C013A0319902CBA2C0800831213
:1009780003138501860187018801890183160317FE
:100988008801890183160313850186019030870049
:10099800880189018B170B178B160B110C16063063
:1009A8000A128A111B230A128A110A128A11792340
:1009B8000A128A110A128A1129260A128A11831226
:1009C8000313A001A101A20120300A128A11A32554
:1009D8000A128A11831203178501D730831603136D
:0409E8008100080082
:100A000005308A000408840A8207003454344534CF
:100A10004D345034003443344F344E345434003465
:100A200041344434433400343034003431340034FD
:100A30003234003433340034343400343534003448
:100A40003634003437340034383400343934003428
:100A50002E34003483120313A500A301A401452DF5
:100A60002308250784000A128A1100250A128A1118
:100A70000A128A11FA250A128A110130831203130D
:100A8000A3070318A40A0030A4072308250784003D
:100A90000A128A1100250A128A11003A031D512DEB
:100AA000522D302D08008B130B1D572D582D612D05
:100AB000EC308312031381000130F6007608BB0787
:100AC0000B11831203130C1E662D672D722D0A1253
:100AD0008A11BC220A128A11831203139900831609
:100AE00003130C128B1779088A0078088400770E9C
:100AF0008300FE0E7E0E090083120313A401A501DC
:100B0000201C832D842D8A2D2208A4070318A50AF2
:100B10002308A50701300310A20DA30DFF3E031DFE
:100B20008B2D01300310A10CA00CFF3E031D922D54
:100B300020082104031D9D2D9E2D802D2508A10038
:100B40002408A000080083120313A30083160313D4
:100B5000871283120313231DAE2DAF2DB52D22084E
:100B60008316031394008715BB2D200822048316D7
:100B700003139400871183120313230821049400A4
:100B8000080083120313A5002503031DC82DC92DDA
:100B9000D12D24087F3E0A128A11DF250A128A11FC
:100BA000DE2D02302506031DD62DD72DDE2D24087F
:100BB000BF3E0A128A11DF250A128A110800831229
:100BC0000313A300891023080A128A1153260A125C
:100BD0008A118312031309140D3083120313A20028
:100BE000FB30A100A10BF22DA20BF22D83120313F7
:100BF0000910080083120313A200891422080A12A4
:100C00008A1153260A128A118312031309140C3015
:100C100083120313A100A10B0B2E000083120313F8
:100C20000910080083120313A300A201231C192E2C
:100C30001A2E1E2E2008A1002108A2070310A00DC5
:100C40000310A30C2308031D262E272E162E220880
:100C500008008316031318131812181583160317A8
:100C6000871119308316031399009A01981683127D
:100C7000031398171813181608000A128A1146262B
:100C80000A128A1183120313130808008316031330
:100C9000141C4B2E4C2E462E080083120313A0006A
:100CA00020089300080083120313A0002008850089
:020CB00008003A
:04400E00D420FF3F7C
:00000001FF
