:020000040000FA
:060000000A128A110C280F
:10000800FE00030EF0000A08F1000A128A11062CFD
:100018000A128A110F2883120313AF0183010A12EF
:100028008A1168293330F8000030F900831203136D
:100038002F08A500A6012508F2002608F300643061
:10004800F4000030F5000A128A1152230A128A11AC
:100058007308FB007208FA000A128A11FF200A12BC
:100068008A11790883120313AB007808AA00643058
:10007800F2000030F3002B08F5002A08F4000A12F9
:100088008A1178220A128A11720883120313A500B2
:100098002508A8002808A500A6012508F2002608BA
:1000A800F3009C30F400FF30F5000A128A11522345
:1000B8000A128A11831203132A087207AA002B084E
:1000C80003182B0A7307AB000A30F2000030F30064
:1000D8002B08F5002A08F4000A128A1178220A125D
:1000E8008A11720883120313A5002508A90029089C
:1000F800A500A6012508F2002608F300F630F40052
:10010800FF30F5000A128A1152230A128A1183124B
:1001180003132A087207AA002B0803182B0A73076F
:10012800AB002A08A5002508A700F601F60A023048
:100138000A128A119C230A128A11831203132808AF
:100148000A128A11BC220A128A110A128A1177230A
:100158000A128A11023083120313A5002508F6003B
:1001680002300A128A119C230A128A1122300A12BA
:100178008A1177230A128A11033083120313A50008
:100188002508F60002300A128A119C230A128A11E5
:100198008312031329080A128A11BC220A128A112F
:1001A8000A128A1177230A128A1104308312031360
:1001B800A5002508F60002300A128A119C230A12AB
:1001C8008A118312031327080A128A11BC220A1201
:1001D8008A110A128A1177230A128A1105308312AA
:1001E8000313A5002508F60002300A128A119C2381
:1001F8000A128A11080083120313A201F91F0529A4
:1002080006290D29F809F909F80A0319F90AA201BA
:10021800A20AFB1F102911291A29FA09FB09FA0A4F
:100228000319FB0A0130A0002008A206A301A401BB
:10023800780879040319212922295929A101A10A39
:10024800302901300310F80DF90DFF3E031D262952
:100258000130A0002008A107F91F332934292529D6
:1002680001300310A30DA40DFF3E031D35297908A5
:100278007B02031D412978087A02031C4429452979
:100288004C297808FA027908031CFB03FB022314A3
:1002980001300310F90CF80CFF3E031D4D29013005
:1002A800A102031D582959293429220803195D2957
:1002B8005E296329A309A409A30A0319A40A240827
:1002C800F9002308F80008000A128A1129230A12E3
:1002D8008A1101300A128A1177230A128A1107300B
:1002E80083120313AC002C08F60001300A128A119D
:1002F8009C230A128A1107300A128A1177230A12DC
:100308008A110D3083120313AC002C08F60001305B
:100318000A128A119C230A128A110D300A128A11B4
:1003280077230A128A118312031306080A128A1104
:1003380016240A128A110A128A11FD230A128A1136
:1003480083120313AC002C08AF008C110230831207
:100358000313AE004530AD00A930AC00AC0BB22998
:10036800AD0BB229AE0BB229013083120313AC00D6
:100378002C0886070A128A1116200A128A11972950
:100388000A128A110C28F400FF29831603130F138D
:100398008F120F12212A831603130F138F120F16B1
:1003A800212A831603130F138F160F12212A83167F
:1003B80003130F138F160F16212A831603130F1713
:1003C8008F120F12212A831603130F178F120F167D
:1003D800212A831603130F178F160F12212A83164B
:1003E80003130F178F160F16212A831603130F17DF
:1003F8008F160F12212A7408F200F3017308003ACD
:100408000319072AF9297208003A0319C929013A78
:100418000319CF29033A0319D529013A0319DB290E
:10042800073A0319E129013A0319E729033A03199D
:10043800ED29013A0319F329F9290F14080014309A
:10044800F7007930F600F60B272AF70B272A2C2A13
:1004580000300A128A111C240A128A111A30F70075
:10046800F830F600F60B362AF70B362A0000303043
:100478000A128A11B8230A128A110730F7007D3050
:10048800F600F60B452AF70B452A30300A128A1176
:10049800B8230A128A113530F600F60B512A30308B
:1004A8000A128A11B8230A128A1138300A128A11DC
:1004B800B8230A128A1110300A128A11B8230A12B4
:1004C8008A1101300A128A11B8230A128A110630D9
:1004D8000A128A11B8230A128A110C300A128A11D8
:1004E800B8230A128A110800F701F8017208730488
:1004F80003197F2A802AB72AF901F90A8E2A0130BE
:100508000310F20DF30DFF3E031D842A0130F6009F
:100518007608F907F31F912A922A832A01300310DB
:10052800F70DF80DFF3E031D932A73087502031D8E
:100538009F2A72087402031CA22AA32AAA2A7208F4
:10054800F4027308031CF503F50277140130031055
:10055800F30CF20CFF3E031DAB2A0130F902031D18
:10056800B62AB72A922A7808F3007708F20008001A
:10057800F400D22A1230FA2A0530FA2A0B30FA2A65
:100588001430FA2A1630FA2A1830FA2A1A30FA2AB7
:100598001C30FA2A1E30FA2A2030FA2A7408F2008F
:1005A800F3017308003A0319DA2AFA2A7208003AA2
:1005B8000319BE2A013A0319C02A033A0319C22AA9
:1005C800013A0319C42A073A0319C62A013A03193A
:1005D800C82A033A0319CA2A013A0319CC2A0F3A3E
:0E05E8000319CE2A013A0319D02AFA2A080074
:1006000003308A000408840A8207003453346534B6
:100610006E34203431340034533465346E34203435
:100620003234003443346F346E3474340034303434
:100630000034333400343434003435340034363448
:1006400000343734003438340034393400342E3434
:100650000034831203138501860187018801890113
:100660008316031788018901831603138501860108
:1006700010308700880189018B1706300A128A1111
:10068000C7210A128A110A128A1123220A128A1118
:10069000F201F301F40120300A128A11D2230A1266
:1006A0008A110800F601F701721C572B582B5E2B9C
:1006B0007408F6070318F70A7508F70701300310E6
:1006C000F40DF50DFF3E031D5F2B01300310F30CFD
:1006D000F20CFF3E031D662B72087304031D712B81
:1006E000722B542B7708F3007608F2000800F7000D
:1006F000F501F6018E2B7508770784000A128A111E
:1007000000230A128A110A128A11E8230A128A1196
:100710000130F5070318F60A0030F6077508770769
:1007200084000A128A1100230A128A11003A031D5A
:100730009A2B9B2B7B2B0800F7007703031DA12B23
:10074000A22BAA2B76087F3E0A128A11B8230A121E
:100750008A11B72B02307706031DAF2BB02BB72BB6
:100760007608BF3E0A128A11B8230A128A110800BD
:10077000F50083120313891075080A128A111C24CC
:100780000A128A118312031309140D30F400FB308E
:10079000F300F30BC92BF40BC92BCE2B83120313DD
:1007A00009100800F500831603138712751DD92B55
:1007B000DA2BDE2B740894008715E22B7208740480
:1007C00094008711750873048312031394000800C2
:1007D000F40083120313891474080A128A111C246A
:1007E0000A128A118312031309140D30F300F30B5C
:1007F000F72B83120313091008000A128A110F2421
:100800000A128A1183120313130808008B138B1723
:1008100071088A00700E8300FE0E7E0E090083169A
:100820000313141C142C152C0F2C0800F200720852
:100830008312031393000800F2007208831203135B
:040840008500080027
:04400E00D420FF3F7C
:00000001FF
