:020000040000FA
:060000000A128A110C280F
:10000800FE00030EF7000A08F8000A128A11B12947
:100018000A128A110F28F001F101F201F301F4012B
:10002800F50183120313A30183010A128A11642ABA
:10003800FA0073289F121F129F111F11BE289F12CA
:100048001F129F111F15BE289F121F129F151F11E7
:10005800BE289F121F129F151F15BE289F121F161C
:100068009F111F11BE289F121F169F111F15BE2812
:100078009F121F169F151F11BE289F121F169F152E
:100088001F15BE289F161F129F111F11BE289F16ED
:100098001F129F111F15BE289F161F129F151F1193
:1000A800BE289F161F129F151F15BE289F161F16C4
:1000B8009F111F11BE289F161F169F111F15BE28BE
:1000C8009F161F169F151F11BE289F161F169F15D6
:1000D8001F15BE289F121F129F111F11BE287908D5
:1000E80083120313A000A1012108003A03197D28F7
:1000F8006E282008003A03191E28013A03192328FC
:10010800033A03192828013A03192D28073A031935
:100118003228013A03193728033A03193C28013ACF
:10012800031941280F3A03194628013A03194B28A5
:10013800033A03195028013A03195528073A0319B5
:100148005A28013A03195F28033A03196428013A27
:10015800031969286E281F131F13D4281F131F178C
:10016800D4281F171F13D4281F171F17D4281F138D
:100178001F13D4287A08A000A1012108003A031906
:10018800C628BB282008003A0319AF28013A0319EA
:10019800B228033A0319B528013A0319B828BB282D
:1001A8001F149F14831603139F010D30831203132A
:1001B800A100FB30A000A00BDF28A10BDF2808005E
:1001C80083120313A0001829883087005229EB30C6
:1001D800870052294C30870052294930870052291C
:1001E8002B30870052291930870052291830870090
:1001F8005229CB30870052290830870052290B300A
:10020800870052290230870052293030870052294E
:1002180094308700522960308700522914308700B3
:1002280052291630870052292008F900FA017A0865
:10023800003A03192029E8287908003A0319E82820
:10024800013A0319EB28033A0319EE28013A031976
:10025800F128073A0319F428013A0319F728033A51
:100268000319FA28013A0319FD280F3A031900293E
:10027800013A03190329033A03190629013A031914
:100288000929073A03190C29013A03190F29033AD6
:1002980003191229013A03191529E82808008312BD
:1002A8000313A0008D29831603130F138F120F1247
:1002B800AF29831603130F138F120F16AF29831656
:1002C80003130F138F160F12AF29831603130F137F
:1002D8008F160F16AF29831603130F178F120F12DD
:1002E800AF29831603130F178F120F16AF29831622
:1002F80003130F178F160F12AF29831603130F1747
:100308008F160F16AF29831603130F178F160F12A8
:10031800AF292008F900FA017A08003A031995294B
:1003280087297908003A03195729013A03195D29E1
:10033800033A03196329013A03196929073A03198A
:100348006F29013A03197529033A03197B29013AE0
:100358000319812987290F1408008B130B1CB52951
:10036800B629D929831203130618BB29BC29BF292A
:10037800F101F10AC9297103031DC329C429C92937
:10038800F1010130F600760888078618CC29CD29B6
:10039800D029F201F20AD8297203031DD429D529DC
:1003A800D829F201013088020B10831203130C1FA5
:1003B800DE29DF29E4291E08F6007608F5000C136B
:1003C8000B1DE729E829F029EC308100F0090130FC
:1003D800F6007608A3070B118B1778088A00770EAA
:1003E8008300FE0E7E0E0900831203138501860129
:1003F8008701880189018316031788010814890178
:1004080001308316031385000330860087018801B5
:100418008901033095005730810006300A128A118D
:1004280053210A128A11F90102300A128A111C207A
:100438000A128A118B170B178B160B1183160313CD
:100448000C178B150B1003309600831203178501C8
:100458005730831603138100080083120313091011
:1004680089107008031D392A3A2A492A75080F3954
:10047800A1002108F30073080A128A11E4200A1265
:100488008A11831203130914632A7508F039A1002D
:100498002108F4007408A10004300310A10CFF3EE9
:1004A800031D512A2108A2002208F40074080A1228
:1004B8008A11E4200A128A1183120313891408008E
:1004C8000A128A11F8210A128A110B3083120313B7
:1004D8002302031C702A712A732A9F14A3010A128B
:1004E8008A1131220A128A110A128A1181220A12E9
:1004F8008A11692A0A128A110C2883120313080820
:100508007502031C882A892A8B2A09158C2A091145
:020518000800D9
:04400E00D420FF3F7C
:00000001FF
